:020000040800F2
:100000004810002001010008892D00084123000844
:10001000852D0008B10900084538000800000000DF
:100020000000000000000000000000004132000855
:10003000B50900080000000015320008433200082E
:100040001B0100081B0100081B0100081B01000820
:100050001B0100081B0100081B0100081B01000810
:100060001B0100081B0100081B0100081B01000800
:100070001B0100081B0100081B0100081B010008F0
:100080001B0100081B0100081B0100081B010008E0
:100090001B0100081B0100081B0100081B010008D0
:1000A0001B0100081B0100081B0100081B010008C0
:1000B0001B0100081B0100081B0100081B010008B0
:1000C0001B0100081B0100081B0100081B010008A0
:1000D0001B010008253800081B01000835380008FE
:1000E0001B0100081B0100081B010008DFF80CD0F1
:1000F00000F0BCFB00480047E9430008481000201E
:100100000648804706480047FEE7FEE7FEE7FEE7B1
:10011000FEE7FEE7FEE7FEE7FEE7FEE7B132000896
:10012000ED000008202A04DB203A21FA02F0002129
:10013000704721FA02F3D040C2F1200291400843F7
:100140001946704740EA01039B0703D009E008C93C
:10015000121F08C0042AFAD203E011F8013B00F88C
:10016000013B521EF9D27047D2B201E000F8012BD8
:10017000491EFBD270470022F6E710B513460A4627
:1001800004461946FFF7F0FF204610BD421E12F844
:10019000013F002BFBD111F8013B02F8013B002B82
:1001A000F9D1704730B505462A460B4612F8010BC7
:1001B00013F8014B08B1A042F8D01CB1002802D0BE
:1001C0006D1CF1E7284630BDCAB2401E10F8011F71
:1001D0008A4202D00029F9D100207047421C10F851
:1001E000011B0029FBD1801A704710B5044600E0BE
:1001F000401C0378002BFBD100E0401C521E04D3AE
:1002000011F8013B0370002BF7D10021017020464B
:1002100010BD034611F8012B00F8012B002AF9D17B
:100220001846704770B5064603F0B0FB04680546F3
:100230000A220021304600F06BFA2C6070BD2DE9D7
:10024000FE4F804681EA0300C00F0C46009021F06B
:10025000004123F00045B8EB0200A94105D2404619
:10026000214690461C460B46024623F000401043B0
:1002700047D0270DC7F30A00C3F30A510290401A72
:10028000019040286BDAC3F3130040F4801B009800
:10029000924620B10023D2EB030A63EB0B0B0198CB
:1002A0005946C0F14002504600F011FA06460D468C
:1002B00050465946019A00F019FA10EB08006141C6
:1002C000002487EA115284EAE7731A4340D0009A67
:1002D00062B3019A012A4FEA075215DC001B61EB59
:1002E00002014FF0004202EA0752CDE90042001C31
:1002F00041F5801132462B4600F051FA03B0BDE8BB
:10030000F08F40462146F9E7001B61EB0201001C1B
:1003100041F5801300185B412018A2F5001747EB48
:10032000030140EAD570B6196D4111E06D084FEA3E
:10033000360645EAC0754FEA0752001B61EB020121
:10034000001C41F5801149084FEA30000019514165
:1003500032462B4603B0BDE8F04F00F011BA0098CA
:10036000012240000023D0EB020263EBE07300980F
:1003700021464FEAE074B8EB000061EB0401E9E7C5
:1003800083F000435BE781F0004158E72DE9FE4F21
:1003900081EA030404F0004421F0004100944FF08E
:1003A000000B23F0004350EA01045ED052EA03043C
:1003B0005BD0C3F30A54C1F30A552C44A4F2F334BE
:1003C0000194A0FB0254C1F3130141F48011C3F363
:1003D000130343F4801301FB024400FB034E840A21
:1003E000970A44EA815447EA8357A4FB07680295B9
:1003F0008D0A05FB07854FEA932C04FB0C54270557
:10040000029D4FEA065847EA1637B5EB08056EEB32
:10041000070C870E920E47EA811742EA8312A7FB68
:100420000201B6EB0B0164EB00042B0D43EA0C3325
:100430005E1844EB1C50DA465146E7FB0201C5F357
:1004400013044FEA0B3343EA14534FEA0432019C7E
:1004500043EA0603A4F10C040294009CCDE900B425
:1004600000F09DF903B0BDE8F08F00200146F9E7E8
:100470002DE9F04D81EA030404F0004B21F0004522
:1004800014464FF0000A23F0004150EA050220D044
:1004900054EA01021DD0C5F30A570246C5F31303FF
:1004A000C1F31300C1F30A5640F4801543F48013DE
:1004B000A7EB0608101BD64608F2FD3873EB0500C3
:1004C00002D308F1010801E092185B41B8F1000F76
:1004D00003DA00200146BDE8F08D00204FF48011C2
:1004E000064684460EE0171B73EB050705D3121B67
:1004F00063EB050306434CEA010C49084FEA300060
:1005000092185B4150EA0107EDD152EA030012D084
:1005100082EA040083EA0501084305D0101BAB41C1
:1005200006D20122002306E000224FF0004302E041
:100530006FF0010253101AEB06004CEB085110EB60
:100540000A0041EB0B01BDE8F04D00F019B90EB502
:10055000C10F80EAE0700844CA07002140F233432B
:100560008DE80E000A460B4600F019F903B000BDF5
:1005700070B5C1F30A5201F000450024C1F3130124
:1005800040F2FF3341F480119A4201DA002070BD3D
:1005900040F233439A42A2F2334203DC5242FFF765
:1005A000C1FD00E090402C43F1D0404270BDC1F34A
:1005B0000A5210B5C1F3130140F2FF3341F4801128
:1005C0009A4201DA002010BD40F233439A42A2F26F
:1005D000334203DC5242FFF7A5FD10BD904010BD31
:1005E00030B5041E71F1000404DB4FF000444042BA
:1005F00064EB0101141E73F1000405DB1C464FF08F
:100600000043524263EB04038B4208BF824230BD79
:1006100030B5041E71F1000404DB4FF00044404289
:1006200064EB0101141E73F1000405DB1C464FF05E
:100630000043524263EB0403994208BF904230BD2D
:1006400030B50B46014600202022012409E021FAA2
:1006500002F59D4205D303FA02F5491B04FA02F59F
:100660002844151EA2F10102F1DC30BD2DE9F05F36
:100670000546002092469B46884606468146402411
:100680001BE02846414647462246FFF74BFD5346AE
:100690005A46C01A914110D311461846224600F01E
:1006A00016F82D1A67EB01084F462246012000215B
:1006B00000F00DF817EB00094E41201EA4F10104D3
:1006C000DFDC484631462A464346BDE8F09F202AF3
:1006D00004DB203A00FA02F1002070479140C2F199
:1006E000200320FA03F3194390407047202A06DBC9
:1006F000CB17203A41FA02F043EAE07306E041FAF0
:1007000002F3D040C2F120029140084319467047DD
:100710002DE9F04791460F4680460446002614F81E
:10072000015B2DB100F0B4F80068405DC007F6D160
:100730002B2D02D02D2D18D0641E4A463946204656
:1007400000F0AAF827B13968A14201D1C7F80080AA
:1007500071054FF002040BD54042002803DD03F081
:1007600015F90460A007BDE8F08746F48066E4E769
:100770000028F8DA03F00AF904606FF00040F2E7AD
:1007800010B5141E73F1000408DA401C41F1000199
:1007900092185B411A4301D120F0010010BD2DE9F0
:1007A000F04D92469B4611B1B1FA81F202E0B0FAE7
:1007B00080F220329046FFF78AFF04460F4640EA57
:1007C0000A0041EA0B0153465A46084313D011462A
:1007D00053EA010019D0C8F140025046FFF7A2FCCD
:1007E00005460E46504659464246FFF770FF0843FD
:1007F00005D0012004E020463946BDE8F08D0020F8
:10080000054346EAE0762C4337430A986305E40A39
:10081000A0EB08000022FD0A44EA47540A3002D542
:1008200000200146E9E7010510196941DDE90845A5
:1008300000196941BDE8F04DA2E7C1F30A52C1F3C6
:10084000130140F2FF3341F480119A4202DA002092
:100850000146704740F233439A42A2F2334202DC2F
:100860005242FFF75FBCFFF732BF0000064C074D56
:1008700006E0E06840F0010394E807009847103470
:10088000AC42F6D3FFF736FCC8560008E85600081D
:1008900000487047C45600082DE9F05F8246007892
:1008A000002715468B460AF10104B946302801D0CD
:1008B0009DB113E014F8010B0127782803D05828C4
:1008C00001D045B10AE00DB1102D07D10027102548
:1008D00014F8010B02E0082500E00A250026B046C6
:1008E0000EE005FB080005FB06F1012701EB1046B1
:1008F0001FFA80F8B6F5803F00D3B94614F8010B13
:10090000294600F018F80028EBDABBF1000F05D0FB
:100910000FB1641E00E05446CBF80040B9F1000F5F
:1009200006D003F033F802210160C81EBDE8F09F35
:1009300048EA0640FAE73A2800D2303820F0200290
:10094000412A01D3A2F13700884201D34FF0FF3092
:10095000704770B58D1810F8014B14F0030201D1E7
:1009600010F8012B231106D110F8013B03E010F819
:10097000016B01F8016B521EF9D1ABB110F8012BDC
:1009800004F00C048A1A0C2C03D0A2EB84129B1CDA
:1009900008E010F8014BA2EB0422F8E712F8014B33
:1009A00001F8014B5B1EF9D5A942D4D3002070BDDC
:1009B00000BFFEE77047000010B580210348FFF735
:1009C000DAFB00200249088010BD0000C4090020A5
:1009D000AA07002070B50546002400BF00F05EF9AC
:1009E00080B90DA10E48FFF7DDFB044654B13A2152
:1009F0002046FFF7E9FB044614B1641C204670BD95
:100A00000020FCE7052000F0E9F9681E85B2002D02
:100A1000E4DC0020F3E700004950442C0000000013
:100A2000C409002008B500BF2348806940F00800D1
:100A3000214988610846806900F00800009000BFE5
:100A400000BFFFF7B9FF03E04FF4FA7000F0C6F9FA
:100A50001AA11BA000F076F80028F5D103E04FF4AE
:100A6000FA7000F0BBF915A117A000F06BF8002890
:100A7000F5D103E04FF4FA7000F0B0F90FA116A021
:100A800000F060F80028F5D103E04FF4FA7000F0B0
:100A9000A5F915A116A000F055F80028F5D103E03E
:100AA0004FF4FA7000F09AF919A11BA000F04AF86F
:100AB0000028F5D108BD0000001002404F4B000097
:100AC00041540D0A0000000041542B43574D4F4440
:100AD000453D310D0A00000041542B435744484323
:100AE000503D312C310D0A00474F54204950000031
:100AF00041542B43574A41503D2257494649222CE5
:100B0000223030303030303030220D0A000000000A
:100B1000434F4E4E4543540041542B434950535488
:100B20004152543D22544350222C223138332E322C
:100B300033302E34302E3339222C363030320D0AF9
:100B400000000000F0B5A1B004460D46C8262046BE
:100B5000FFF744FB87B22622254910A8FFF7F2FAD7
:100B60002348C08CADF866002148816A1A91808DB7
:100B7000ADF86C001E48C08DADF86E001C48006BCF
:100B80001C9009221A4934311DA8FFF7DBFA1848D6
:100B900090F83D008DF87D00154890F83E008DF8E6
:100BA0007E001348006C2090342214A96846CDE9D9
:100BB0000D47FFF7C7FA10A80FC802F045FE0FE077
:100BC00000F06CF848B929460A48FFF7EBFA20B163
:100BD000FFF7F2FE002021B0F0BD0A2000F0FEF881
:100BE000301EA6F10101CEB2EAD10120F3E70000E8
:100BF00060080020C409002030B5A9B005460C46A5
:100C0000FFF7DAFE22461FA121A802F08FFE21A1E4
:100C100021A8FFF797FF98BB26221F4910A8FFF7CE
:100C200091FA1D48C08CADF866001B48816A1A9184
:100C3000808DADF86C001848C08DADF86E00164878
:100C4000006B1C900922144934311DA8FFF77AFA71
:100C5000114890F83D008DF87D000F4890F83E0057
:100C60008DF87E000C48006C2090342214A9684650
:100C7000CDE90D54FFF766FA10A80FC802F0E4FDA5
:100C800029B030BD41542B43495053454E443D2576
:100C9000640D0A003E000000600800200A48008839
:100CA00008B9012070470848008808490988884227
:100CB00003D1002004490880F4E703480088034971
:100CC00008800120EEE70000AA070020AC07002002
:100CD00072B600BFFEE70146002291F8210002280B
:100CE00008D00420886300BF002081F8200000BFE6
:100CF000012070470868006820F00E000B6818603B
:100D00000868006820F001000B68186091F8403016
:100D100001209840CB6B5860012081F8210000BF72
:100D2000002081F8200000BF1046E2E770B50446BD
:100D3000002594F82100022803D00420A063012597
:100D400048E02068006820F00E00216808602068F4
:100D5000006820F00100216808601F49206888426F
:100D600001D1012026E01C4914312068884201D1BC
:100D700010201FE0184928312068884201D18015D1
:100D800018E015493C312068884201D1801411E0F7
:100D9000114950312068884202D14FF4803009E077
:100DA0000D4964312068884202D14FF4801001E07F
:100DB0004FF08070084908394860012084F821000C
:100DC00000BF002084F8200000BF606B10B12046F7
:100DD000616B8847284670BD0800024070B5044624
:100DE00000F0A6F906462546681C10B104480078B4
:100DF000054400BF00F09CF9801BA842FAD370BDE7
:100E0000BC0700202DE9F8470346002294466EE116
:100E10004FF0010808FA02F4D1F8008008EA040053
:100E2000A0427DD1DFF8DCA2D1F80480A8EB0A094A
:100E3000D0453AD014DCB8F1030F50D009DCB8F13A
:100E4000000F31D0B8F1010F1CD0B8F1020F49D119
:100E500020E0B8F1110F18D0B8F1120F42D11EE006
:100E6000B9F5881F25D006DCB9F5803F20D0B9F54B
:100E7000801F37D11AE0B9F5001F18D0B9F5041F4B
:100E800030D117E0D1F80CC02DE0D1F80C8008F17A
:100E9000040C28E0D1F80C8008F1080C23E0D1F80C
:100EA0000C8008F10C0C1EE000BF00BF00BF00BFAB
:100EB00000BF00BFD1F80880B8F1000F02D14FF099
:100EC000040C0BE0D1F80880B8F1010F03D14FF00A
:100ED000080C1C6102E04FF0080C5C6103E04FF06D
:100EE000000C00E000BF00BFFF2801D8984601E0D9
:100EF00003F104084646FF2802D84FEA820803E0BF
:100F0000A2F108084FEA88084746D6F800804FF05B
:100F10000F0909FA07F928EA09080CFA07F900E0AD
:100F200088E048EA0908C6F80080D1F8048008F093
:100F30008058B8F1805F7DD100BFDFF8CC81D8F850
:100F4000188048F00108DFF8C091C9F81880C84639
:100F5000D8F8188008F00108CDF8008000BF00BF65
:100F60004FEAB9384FEA920958F829504FEA827887
:100F70004FEA18794FF00F0808FA09F825EA080532
:100F8000DFF88881434502D14FF0000816E0DFF812
:100F90008081434502D14FF001080FE0DFF87481F2
:100FA000434502D14FF0020808E0DFF86C81434569
:100FB00002D14FF0030801E04FF004084FEA8279B4
:100FC0004FEA197908FA09F848EA0505DFF84C8173
:100FD0004FEA920948F82950D1F8048008F4803883
:100FE000B8F5803F0AD1DFF83881D8F8008048EAA8
:100FF0000008DFF82C91C9F8008009E0DFF82081B3
:10100000D8F8008028EA0008DFF81491C9F80080B9
:10101000D1F8048008F40038B8F5003F10D1DFF8AB
:10102000008108F10408D8F8008048EA0008DFF8D9
:10103000F09000E05AE009F10409C9F800800DE0E1
:10104000DFF8DC8008F10408D8F8008028EA0008FE
:10105000DFF8CC9009F10409C9F80080D1F80480C8
:1010600008F48018B8F5801F0ED1DFF8B48008F1BD
:101070000808D8F8008048EA0008DFF8A49009F1D1
:101080000809C9F800800DE0DFF8948008F108082D
:10109000D8F8008028EA0008DFF8849009F10809F0
:1010A000C9F80080D1F8048008F40018B8F5001FD2
:1010B0000ED1DFF86C8008F10C08D8F8008048EAFF
:1010C0000008DFF85C9009F10C09C9F800800DE018
:1010D000DFF84C8008F10C08D8F8008028EA0008F6
:1010E000DFF83C9009F10C09C9F80080521CD1F8D6
:1010F000008028FA02F8B8F1000F7FF489AEBDE84D
:10110000F8870000000011100010024000080140A4
:10111000000C014000100140001401400800014093
:10112000000401400AB1016101E00B040361704752
:101130000148006870470000B407002003480068B9
:10114000034909780844014908607047B407002042
:10115000BC07002010B50848006840F010000649A0
:101160000860032000F0A8F8002000F007F800F065
:101170002BF8002010BD00000020024070B504468E
:101180000E4800784FF47A71B1FBF0F00C49096811
:10119000B1FBF0F5284600F00BFC08B1012070BD52
:1011A000102C07D200222146501E00F047F80548B7
:1011B000046001E00120F2E70020F0E7BC07002016
:1011C000C0070020B807002008B500BF114880699B
:1011D00040F001000F4988610846806900F0010075
:1011E000009000BF00BF00BF0846C06940F08050BB
:1011F000C8610846C06900F08050009000BF00BF81
:1012000000BF0549486820F0E06040F00070486089
:1012100000BF08BD00100240000001400146084622
:10122000002809DB00F01F0301229A4043099B00BC
:1012300003F1E023C3F8002100BF70472DE9F05F00
:1012400080460D461646002702F084FB07463946C5
:101250002A46334601F00700C0F1070ABAF1040F2D
:1012600002D94FF0040A01E0C0F1070AD14600F1AB
:10127000040ABAF1070F02D24FF0000A01E0A0F110
:10128000030AD4464FF0010A0AFA09FAAAF1010A40
:101290000AEA020A0AFA0CFA4FF0010B0BFA0CFBED
:1012A000ABF1010B0BEA030B4AEA0B042146404663
:1012B00002F058FBBDE8F09F00BF00F00702064BAC
:1012C00019684FF6FF031940044B0B4343EA022110
:1012D000014B196000BF70470CED00E00000FA05FB
:1012E00070B504460D460CB9012070BD5A4800681F
:1012F00000F00700A8420ED25748006820F007000F
:101300002843554908600846006800F00700A842D5
:1013100001D00120E9E7207800F0020002281DD169
:10132000207800F00400042805D14C48406840F4BF
:10133000E0604A494860207800F00800082805D19C
:101340004648406840F4605044494860434840681B
:1013500020F0F000A168084340494860207800F080
:10136000010078B36068012806D13C48006800F4A9
:10137000003090B90120B8E76068022806D13748EC
:10138000006800F0007040B90120AEE73348006803
:1013900000F0020008B90120A7E73048406820F0BB
:1013A0000300616808432D494860FFF7C1FE064607
:1013B00009E0FFF7BDFE801B41F28831884202D967
:1013C000032092E707E02548406800F00C006168C0
:1013D000B0EB810FEDD12048006800F00700A84273
:1013E0000ED91D48006820F0070028431A490860FC
:1013F0000846006800F00700A84201D0012074E709
:10140000207800F00400042807D11448406820F434
:10141000E060E168084311494860207800F0080066
:10142000082808D10D48406820F46050216940EA3E
:10143000C1000A49486000F03FF808494968C1F313
:101440000311074A515CC840064908600648006815
:10145000FFF794FE002048E7002002400010024001
:1014600028560008C0070020B8070020014800687F
:1014700070470000C007002000B5FFF7F7FF0449E0
:101480004968C1F30221034A515CC84000BD000015
:10149000001002403856000800B5FFF7E7FF044986
:1014A0004968C1F3C221034A515CC84000BD000035
:1014B0000010024038560008F0B585B00FF26C0CF1
:1014C0009CE8E01001A8A0E8E0101CA52D6800959C
:1014D00000210022002300240020194D696801F03A
:1014E0000C05F5B1042D02D0082D19D101E01548E5
:1014F00019E001ADC1F38346AC5D01F4803555B10F
:101500000F4D6D68C5F340451DF805200D4D654331
:10151000B5FBF2F302E00C4D04FB05F3184602E0C4
:1015200000BF084800BF00BF05B0F0BD02030405BE
:10153000060708090A0B0C0D0E0F1010010200001F
:101540000010024000127A0000093D00F8B5044680
:101550000CB90120F8BD207800F00100002878D0F7
:10156000F848406800F00C0004280CD0F5484068AA
:1015700000F00C00082811D1F248406800F48030D7
:10158000B0F5803F0AD1EF48006800F40030002831
:101590005FD0606800285CD10120DBE700BF606895
:1015A000B0F5803F06D1E748006840F48030E54957
:1015B000086028E0606858B9E248006820F480308C
:1015C000E04908600846006820F4802008601AE0BE
:1015D0006068B0F5A02F0BD1DA48006840F4802095
:1015E000D84908600846006840F4803008600AE086
:1015F000D448006820F48030D2490860084600686A
:1016000020F48020086000BF606888B1FFF790FD7B
:10161000054606E0FFF78CFD401B642801D9032036
:1016200098E7C848006800F400300028F2D010E0C5
:10163000FFF77EFD054606E0FFF77AFD401B6428B4
:1016400001D9032086E7BF48006800F40030002875
:10165000F2D1207800F00200022857D1B948406842
:1016600000F00C0050B1B748406800F00C000828AA
:1016700018D1B448406800F4803098B9B148006887
:1016800000F0020020B12069012801D0012061E7AB
:10169000AC48006820F0F800616940EAC100A9493F
:1016A000086033E02069E8B10120A7490860FFF72E
:1016B0003FFD054606E0FFF73BFD401B022801D930
:1016C000032047E79F48006800F002000028F2D09E
:1016D0009C48006820F0F800616940EAC10099491F
:1016E000086013E0002098490860FFF721FD0546D7
:1016F00006E0FFF71DFD401B022801D9032029E762
:101700009048006800F002000028F2D1207800F034
:10171000080008282DD1A069B8B101208B490860C4
:10172000FFF706FD054606E0FFF702FD401B022815
:1017300001D903200EE78348406A00F00200002828
:10174000F2D0012001F068FD13E000207F4908601D
:10175000FFF7EEFC054606E0FFF7EAFC401B022817
:1017600001D90320F6E67748406A00F0020000281D
:10177000F2D1207800F00400042873D100277148CA
:10178000C06900F0805070B900BF6E48C06940F079
:1017900080506C49C8610846C06900F080500090D4
:1017A00000BF00BF01276A48006800F48070B0B92C
:1017B0006748006840F4807065490860FFF7B8FC2E
:1017C000054606E0FFF7B4FC401B642801D903205E
:1017D000C0E65F48006800F480700028F2D000BFC7
:1017E000E068012806D15748006A40F001005549D9
:1017F000086227E0E06858B95248006A20F001000A
:10180000504908620846006A20F00400086219E0A6
:10181000E06805280BD14B48006A40F004004949B4
:1018200008620846006A40F0010008620AE0454884
:10183000006A20F00100434908620846006A20F06F
:101840000400086200BFE068A0B1FFF771FC054624
:1018500009E0FFF76DFC401B41F28831884202D954
:10186000032077E622E03748006A00F002000028F3
:10187000EFD012E0FFF75CFC054608E0FFF758FCEC
:10188000401B41F28831884201D9032062E62D488D
:10189000006A00F002000028F0D1012F05D129488C
:1018A000C06920F080502749C86100BFE069C8B313
:1018B0002448406800F00C00082860D0E069022845
:1018C00048D1002020490866FFF732FC054606E0B3
:1018D000FFF72EFC401B022801D903203AE61948E5
:1018E000006800F000700028F2D1206AB0F5803F57
:1018F00007D11448406820F40030A168084311491A
:101900004860D4E9080108430E49496821F474117C
:1019100008430C49486001200B490866FFF708FCA2
:10192000054607E03DE0FFF703FC401B022801D914
:1019300003200FE60348006800F000700028F2D092
:101940002FE00000001002400000424280044242AA
:1019500000700040002014490866FFF7E9FB0546C7
:1019600006E0FFF7E5FB401B022801D90320F1E563
:101970000E48006800F000700028F2D111E0E06924
:10198000012800D1E6E50948466806F48031206A5E
:10199000814204D106F47011606A814201D00120B5
:1019A000D8E50020D6E500000000424200100240C9
:1019B00070B504462546681EB0F1807F01D3012032
:1019C0000FE0681E4FF0E02148610F214FF0FF301B
:1019D00001F0C8FF00204FF0E02188610720086176
:1019E000002070BD30B502460B4600BF92F83C00A7
:1019F000012801D1022030BD012082F83C0000BF47
:101A0000022082F83D00106844681068816824F064
:101A100070041868044310684460104D1068A842B0
:101A20000BD01068B0F1804F07D00D4D1068A84260
:101A300003D00C4D1068A84205D121F080015868F0
:101A4000014310688160012082F83D0000BF002042
:101A500082F83C0000BF00BFCDE70000002C014031
:101A6000000400400008004010B586B00446002085
:101A700002900390049005902068B0F1804F17D138
:101A800000BF2548806940F004002349886108466A
:101A9000806900F00400019000BF00BF0F20029099
:101AA00002200390059002A91C48FFF7ABF930E033
:101AB0001B49206888422CD100BF1748806940F03C
:101AC0000400154988610846806900F0040001900F
:101AD00000BF00BF00BF0846806940F00800886171
:101AE0000846806900F00800019000BF00BFC020D8
:101AF000029002200390059002A90848FFF782F99E
:101B00000320029002200390059002A90548FFF7E8
:101B100079F906B010BD0000001002400008014035
:101B200000040040000C014070B504460D46164606
:101B300000BF94F83C00012801D1022070BD0120B3
:101B400084F83C0000BF36B1042E1BD0082E31D0E3
:101B50000C2E5ED145E02946206801F0F7FB206895
:101B6000806940F00800216888612068806920F061
:101B70000400216888612068806929690843216818
:101B8000886147E02946206801F010FC20688069E0
:101B900040F40060216888612068806920F48060DA
:101BA0002168886120688069296940EA01202168EC
:101BB00088612FE02946206801F02CFC2068C0696C
:101BC00040F008002168C8612068C06920F0040066
:101BD0002168C8612068C069296908432168C86113
:101BE00018E02946206801F049FC2068C06940F4EB
:101BF00000602168C8612068C06920F480602168A5
:101C0000C8612068C069296940EA01202168C8616B
:101C100000E000BF00BF00BF002084F83C0000BF10
:101C200000BF8BE710B504460CB9012010BD94F835
:101C30003D0028B9002084F83C00204600F026F83A
:101C4000022084F83D00211D206801F033FB0120B3
:101C500084F8460000BF84F83E0001213F20015572
:101C6000402001554120015500BF00BF012084F8EC
:101C7000420043200155442001554520015500BF35
:101C8000012084F83D000020D0E7000008B501687D
:101C9000B1F1804F0DD100BF0F49C96941F0010179
:101CA0000D4AD1611146C96901F00101009100BFDF
:101CB00011E00A4A016891420DD100BF0649C96985
:101CC00041F00201044AD1611146C96901F00201E3
:101CD000009100BF00BF08BD00100240000400409A
:101CE00070B504460D4615B994F83E000BE0042D7E
:101CF00002D13F20005D06E0082D02D14020005DAA
:101D000001E04120005D012801D0012070BD1DB916
:101D1000022084F83E000EE0042D03D102213F2072
:101D2000015508E0082D03D102214020015502E0B1
:101D300002214120015501222946206801F0F4FAD0
:101D400019492068884201D1012000E0002028B113
:101D50002068406C40F400402168486412492068C3
:101D600088420BD02068B0F1804F07D00F4920681F
:101D7000884203D00E49206888420CD120688068D0
:101D800000F00706062E0CD02068006840F0010025
:101D90002168086005E02068006840F001002168C3
:101DA00008600020B2E70000002C01400004004061
:101DB00000080040704770472DE9F84F044620683E
:101DC00005682068C668206847694FF00009CA4660
:101DD00005F00F09B9F1000F0AD105F0200038B164
:101DE00006F0200020B1204601F0A1FBBDE8F88FED
:101DF000B9F1000F71D007F0010018B906F4907026
:101E000000286AD005F0010030B106F4807018B1E6
:101E1000206C40F00100206405F0040030B107F0B0
:101E2000010018B1206C40F00200206405F00200AF
:101E300030B107F0010018B1206C40F004002064BC
:101E400005F0080048B106F0200010B907F00100C5
:101E500018B1206C40F008002064206C68B305F0D5
:101E6000200028B106F0200010B1204601F05FFBF1
:101E700020684069C0F3801A206C00F0080010B997
:101E8000BAF1000F22D0204601F026FB20684069FD
:101E900000F04000B0B12068406920F040002168A7
:101EA0004861A06B50B15648A16B4863A06BFEF728
:101EB0003DFF10B1A06B416B88470CE02046FFF757
:101EC0007AFF08E02046FFF776FF04E02046FFF7A0
:101ED00072FF0020206489E7FFE7206B012878D19A
:101EE00005F01000002874D006F01000002870D013
:101EF00000BF0020009020680068009020684068C3
:101F0000009000BF00BF2068406900F04000C0B3EF
:101F1000A06B006840681FFA80F8B8F1000F2FD05E
:101F2000A08D40452CDDA4F82E80A06B8069202870
:101F30001FD02068C06820F480702168C8602068C5
:101F4000406920F00100216848612068406920F064
:101F5000400021684861202084F83E000020206372
:101F60002068C06820F010002168C860A06BFEF7F0
:101F7000B2FEA08DE28D801A81B22046FFF71AFFD3
:101F800034E7FFE7A08DE18D401A1FFA80F8E08D5D
:101F9000E8B1B8F1000F1AD02068C06820F4907042
:101FA0002168C8602068406920F00100216848610C
:101FB000202084F83E00002020632068C06820F0C4
:101FC00010002168C86041462046FFF7F3FE0DE788
:101FD000FFE705F0800030B106F0800018B1204620
:101FE00001F0B9FB02E705F0400030B106F0400017
:101FF00018B1204601F08BFAF8E600BFF6E60000C3
:10200000C534000810B504460CB9012010BDA06904
:1020100000B100E000BF94F83D0028B9002084F82A
:102020003C00204600F028F8242084F83D00206879
:10203000C06820F400502168C860204601F0EAFA28
:102040002068006920F49040216808612068406998
:1020500020F02A00216848612068C06840F40050E0
:102060002168C86000202064202084F83D0084F8A6
:102070003E000020CAE7000010B586B004460020EC
:10208000029003900490059042492068884244D110
:1020900000BF4148806940F480403F49886108465C
:1020A000806900F48040019000BF00BF00BF084677
:1020B000806940F0040088610846806900F00400EF
:1020C000019000BF00BF00BF0846806940F00100DA
:1020D00088610846806900F00100019000BF00BFE0
:1020E00048150290022003900320059002A92B4876
:1020F000FEF788FE4FF48060029000200390049069
:1021000002A92648FEF77EFE032211462520FFF78E
:1021100095F82520FFF782F83AE0214920688842A7
:1021200036D100BF1C48C06940F480201A49C861FC
:102130000846C06900F48020019000BF00BF00BFC6
:102140000846806940F0080088610846806900F010
:102150000800019000BF00BF081502900220039004
:102160000320059002A90F48FEF74CFE4FF40060D3
:10217000029000200390049002A90A48FEF742FE54
:10218000002211462720FFF759F82720FFF746F8CD
:1021900006B010BD003801400010024000080140A8
:1021A00000480040000C014070B504460D4616463C
:1021B00094F83E00202816D105B10EB9012070BD5B
:1021C00000BF94F83C00012801D10220F7E701206C
:1021D00084F83C0000BF0020206332462946204698
:1021E00001F096FAEBE70220E9E7000070B504463B
:1021F00016492068884209D115480578284602F01A
:10220000D1F9012212491348FFF7CEFF1249206885
:1022100088421AD111480088802807D300200F492E
:10222000088080210E48FDF7A6FF09E00D480178DF
:102230000A4802880088401C084B188008488154CE
:10224000012208490848FFF7AFFF70BD0048004071
:1022500088010020A408002000380140AA070020BF
:10226000C40900208C010020600800202DE9F84FEF
:1022700004460E46174699464FF0000A94F83D0072
:1022800020285AD106B117B90120BDE8F88F00BF48
:1022900094F83C00012801D10220F6E7012084F8DF
:1022A0003C0000BF00202064212084F83D00FEF7A0
:1022B0003FFF8246A784E784A068B0F5805F04D121
:1022C000206910B90025B04602E035464FF00008FD
:1022D00000BF002084F83C0000BF1BE053460022F2
:1022E00080212046CDF8009001F065FA08B1032066
:1022F000CBE745B9B8F80000C0F308002168486092
:1023000008F1020803E02878216848606D1CE08C21
:10231000401EE084E08C0028E0D15346002240219A
:102320002046CDF8009001F046FA08B10320ACE752
:10233000202084F83D000020A7E70220A5E7704791
:1023400000BFFEE710B5012220210A48FEF7EAFE91
:102350000122D1030748FEF7E5FE00224FF40041B9
:102360000448FEF7DFFE002220210248FEF7DAFED5
:1023700010BD0000000C014010B5012220210748CB
:10238000FEF7D0FE00224FF400410448FEF7CAFEDB
:102390000122D1030148FEF7C5FE10BD000C01402B
:1023A00010B5012220210448FEF7BCFE00222021A6
:1023B0000148FEF7B7FE10BD000C014010B5044601
:1023C000207B012802D1206801F0E6FF0020206078
:1023D0006060A060207310BD0246002301230DE061
:1023E00002F07F000870D2092AB1087840F080001E
:1023F0000870491C01E0184670475B1C042BEFDD98
:102400004FF0FF30F8E770B504460E46002520680F
:1024100098B901202073304602F08EF820602068C1
:10242000E0B100206060A66003E00020216848550C
:102430006D1CA068A842F8D810E00220207303E0C9
:102440000020216848556D1CA068A842F8D80020DB
:102450006060A068B04201D20020206070BD000022
:102460002DE9FF5F07460D4690463846FDF7B6FE5C
:1024700086B22846FDF7B2FE1FFA80FA4FF0000937
:10248000F01D02F059F804461CB9012004B0BDE863
:10249000F09FF11D2046FDF76EFE12A0016821603D
:1024A0008088A080324639462046FDF79EFE2846A9
:1024B000FDF794FE83460120002100915B462A46E9
:1024C000CDE90208019121460A2000F05FF910B918
:1024D0004FF0000901E04FF00109204601F05CFFD8
:1024E0004846D3E724637273702F00002DE9FF4F35
:1024F00083B082468B469146159C002500200290B1
:102500000F2701904846FDF769FE0FFA80F8B9F1F0
:10251000000F03D1012007B0BDE8F08F08F10200E1
:10252000384487B2109808B145F00205129878B186
:1025300045F004051298FDF751FEC0B202901398C1
:10254000FDF74CFE01460298001D0844384487B24E
:10255000119820B1012804D0022808D104E000BF5E
:1025600007E045F00C0504E045F0140501E0022009
:10257000D1E700BF149808B145F02405BAF1000F67
:1025800002D0BBF1000F01D10320C4E745F0C00524
:102590005046FDF723FE06465846FDF71FFE304421
:1025A000001D384487B239462046FFF72CFF2068CB
:1025B00008B90420AFE739462068FDF7DCFD10219B
:1025C0006268501C606020688154D4E90023D118EF
:1025D000781FFFF701FF00B201900198002804DA8C
:1025E0002046FFF7EBFE052095E761680198084457
:1025F000606000216268501C606020688154042182
:102600006268501C6060206881544D216268501CD3
:1026100060602068815451216268501C60602068AD
:10262000815454216268501C606020688154626843
:10263000501C60602068815404216268501C6060F6
:10264000206881546168481C606020684554069881
:10265000010A6268501C6060206881540698C1B20B
:102660006268501C606020688154C8F3072162686A
:10267000501C6060206881546268501C6060206853
:1026800000F80280D4E90012881842464946FDF756
:10269000ACFD60684044606005F00400B8B30026FB
:1026A000139808B938A013901298FDF797FD86B2D9
:1026B000310A6268501C6060206881546268501C56
:1026C000606020688654D4E9001288183246129956
:1026D000FDF78BFD6068304460601398FDF77EFD68
:1026E00086B2310A6268501C60602068815462685A
:1026F000501C606020688654D4E900128818324665
:102700001399FDF772FD60683044606000BF05F00A
:102710008000C8B15046FDF761FD86B2310A62689B
:10272000501C6060206881546268501C60602068A2
:102730008654D4E90012881832465146FDF755FDFB
:1027400060683044606000BF05F04000C8B1584682
:10275000FDF744FD86B2310A6268501C6060206853
:1027600081546268501C606020688654D4E900126D
:10277000881832465946FDF738FD6068304460607D
:1027800000BF0020C7E60000000000002DE9FF4F59
:1027900083B0834617469946139C002500260020E7
:1027A000029001908046BBF1000F03D1012007B0D9
:1027B000BDE8F08F00260AE00498805D232803D04E
:1027C0000498805D2B2801D10220F0E7761C049844
:1027D000805D0028F0D148F03008119808B148F029
:1027E000010806EB0900851C109820B1012804D0CF
:1027F00002280AD105E000BF09E048F00208AD1C3C
:1028000005E048F00408AD1C01E00320CFE700BF5D
:102810008FB33878022821D14FF0000A00BF50460C
:102820000AF1010A385C7D28F9D1AAF1030A0AF1FC
:10283000070002900298A9EB000AE81CA0EB0A012D
:102840002046FFF7E0FD206808B90420AFE7EA1C46
:10285000A2EB0A012068FDF78EFC19E0691D2046F5
:10286000FFF7D1FD206808B90420A0E7691D2068A2
:10287000FDF781FC0CE0FFE7691D2046FFF7C3FD73
:10288000206808B9042092E7691D2068FDF773FCF1
:102890006168481C6060206800F80180D4E900028B
:1028A00081182846FFF798FD01900198002804DA66
:1028B0002046FFF783FD052079E761680198084409
:1028C0006060C6F307216268501C60602068815414
:1028D0006268501C606020688654D4E90012881831
:1028E00032460499FDF781FC6068304460601098BE
:1028F00060B14FEA1B216268501C606020688154FF
:102900006268501C6060206800F802B0C7B1387877
:1029100002280BD1D4E9001288183946029AFDF733
:1029200011FC616802980844606009E0D4E9001273
:1029300088184A463946FDF705FC606848446060DF
:10294000002034E72DE9FF4107460D4690461E461C
:102950000A9C01200021CDE90001EB1C0A460FA1D1
:10296000CDE902040A20FFF711FF88B96168481C0D
:10297000606020684654C5F307216268501C60609F
:10298000206881546268501C60602068855403E0B0
:10299000012004B0BDE8F0810020FAE72464700053
:1029A000F0B504460D4626460123002010600021A4
:1029B00014E0775C07F07F07106807FB03001060E6
:1029C000705C00F0800008B9481CF0BDDB01B3F575
:1029D000001F02D36FF00100F7E7491CA942E8DBB2
:1029E0004FF0FF30F1E72DE9F84380460C461546DD
:1029F0001E462F2108F10600FDF7E6FB07460020E2
:102A0000009017B90120BDE8F8837F1C6A460421B5
:102A100008F10100FFF7C4FF252001F08DFD2060C3
:102A2000206808B90220EEE725212068FDF7A3FB06
:102A3000242239462068FDF785FB243700982C387E
:102A400030803188481C01F077FD2860286820B963
:102A5000206801F0A1FC0320D5E73288511C2868CA
:102A6000FDF789FB328839462868FDF76BFB0020AB
:102A7000C9E701464878022801D0012070478878CC
:102A800010B18878012801D1C878F7E7FF20F5E771
:102A900001464878022801D001207047887820B983
:102AA000C8780A2801D10020F7E70120F5E70000E7
:102AB000F8B50446FF2720780511012D01DB0E2D06
:102AC00001DD3846F8BD032D24D1002000906A4670
:102AD0000421601CFFF764FF2044461C0098022874
:102AE00003D3207800F0010008B1FF20EAE77078F6
:102AF000317840EA0120801C0099884201D9FF20EA
:102B0000E0E706A1B01CFDF74DFB08B10F2700E080
:102B1000032700E02F463846D4E70000246372659F
:102B20007100000000B585B0002001900290039074
:102B3000049000BF1D48806940F020001B49886157
:102B40000846806900F02000009000BF00BF00BF71
:102B50000846806940F0040088610846806900F0FA
:102B60000400009000BF00BF00BF0846806940F02D
:102B7000080088610846806900F00800009000BFE6
:102B800000BF00224FF4E0410948FEF7CBFA4FF4B2
:102B9000E040019001200290002003900220049068
:102BA00001A90348FEF72EF905B000BD0010024050
:102BB000000C014000B589B00020079008901C214E
:102BC0006846FDF7D8FA4FF0804023490860472057
:102BD000486000212048816044F61F61C1600021E7
:102BE00001618161FFF71EF808B1FEF771F800205E
:102BF0000790089007A91848FEF7F4FE08B1FEF701
:102C000067F860200090002001900290049000225C
:102C100069461148FEF788FF08B1FEF759F804220B
:102C200069460D48FEF780FF08B1FEF751F808220B
:102C300069460948FEF778FF08B1FEF749F80C220B
:102C400069460548FEF770FF08B1FEF741F80248F3
:102C5000FEF70AFF09B000BDD007002000B589B01B
:102C60000020079008901C216846FDF784FA24484C
:102C7000244908604720486000212248816044F6CA
:102C80001F61C160002101618161FEF7CBFF08B1C6
:102C9000FEF71EF800200790089007A91948FEF7D4
:102CA000A1FE08B1FEF714F860200090002001900A
:102CB00002900490002269461248FEF735FF08B1E1
:102CC000FEF706F8042269460E48FEF72DFF08B10C
:102CD000FDF7FEFF082269460A48FEF725FF08B106
:102CE000FDF7F6FF0C2269460648FEF71DFF08B106
:102CF000FDF7EEFF0348FEF7B7FE09B000BD000088
:102D0000000400401808002010B50D480D49086067
:102D10004FF4E130486000210A488160C1600161E0
:102D20000C21416100218161C161FFF76BF908B19C
:102D3000FDF7CEFF012204490248FFF735FA10BD26
:102D400000380140600800208C01002010B50B48BD
:102D50000B4908604FF4E130486000210848816069
:102D6000C16001610C21416100218161C161FFF7F6
:102D700049F908B1FDF7ACFF10BD00000048004064
:102D8000A408002000BFFEE700BFFEE770B50024E6
:102D900018E004F1B000002100F014F90021084609
:102DA00000F010F90021102000F00CF9002505E0DA
:102DB0000121002000F006F9681CC5B2802DF7DB68
:102DC000601CC4B2082CE4DB70BD000000B585B007
:102DD00000BF4748806940F00800454988610846BF
:102DE000806900F00800009000BF00BF48F220009A
:102DF0000190012002900320049001A93D48FEF7B4
:102E000001F8012248F220013B48FEF78BF9C82067
:102E1000FDF7E4FF0021AE2000F0D4F800210846C1
:102E200000F0D0F80021102000F0CCF80021402064
:102E300000F0C8F80021B02000F0C4F80021812083
:102E400000F0C0F80021FF2000F0BCF80021A12014
:102E500000F0B8F80021A62000F0B4F80021A82066
:102E600000F0B0F800213F2000F0ACF80021C820AD
:102E700000F0A8F80021D32000F0A4F800210846B3
:102E800000F0A0F80021D52000F09CF8002180205F
:102E900000F098F80021D82000F094F800210520D7
:102EA00000F090F80021D92000F08CF80021F120EA
:102EB00000F088F80021DA2000F084F800211220C8
:102EC00000F080F80021DB2000F07CF800213020A9
:102ED00000F078F800218D2000F074F80021142013
:102EE00000F070F80021AF2000F06CF805B000BDD4
:102EF00000100240000C01400014014070B504466F
:102F0000264606F1B000002100F05CF800210846DA
:102F100000F058F80021102000F054F8002505E0DA
:102F20000121002000F04EF8681CC5B2802DF7DBAF
:102F300070BD70B504460D4605F1B000002100F0EB
:102F400041F8102141EA1410002100F03BF804F090
:102F50000F00002100F036F870BD00002DE9F041AF
:102F600080460E461546002731464046FFF7E1FFF2
:102F700000240AE0124A02EB8511085D012100F0ED
:102F800021F8781CC7B2601CC4B2102CF2DB701C94
:102F9000C1B24046FFF7CDFF00240CE06900491C98
:102FA000074A02EB4111085D012100F00BF8781C83
:102FB000C7B2601CC4B2102CF0DBBDE8F081000089
:102FC000AA01002070B504460D461DB1E0B200F024
:102FD00097FC02E0E0B200F07DFC70BD30B58BB034
:102FE00000200790089009900A90012507A8002169
:102FF00002910391CDE9041000912B0217A20191D7
:1030000019A11BA0FFF772FA20BB089A91B207988A
:10301000FDF7F2FDFA20FDF7DDFC0446BCB12046C9
:10302000FFF746FD022812D12046FFF722FD0628B1
:103030000BD2DFE800F0030506070809002505E0CC
:1030400004E003E002E001E000E000BF00BF07A8E9
:10305000FFF7B4F928460BB030BD000031303431F1
:1030600037393438343500003132333435360000E6
:10307000353730333939000010B588B00446202187
:103080006846FDF778F80CA12046FDF7C2F820212C
:103090006846FDF770F8094809A10268684600F023
:1030A00045FC69462046FDF771F82046FDF796F885
:1030B000C0B208B010BD00002C3B0000B0070020DB
:1030C000636F756E746572732C25643B000000009D
:1030D0002DE9F0418AB080460020069007900890C4
:1030E00009900590049003900025002600240027F5
:1030F0004046FFF7DDFC0546042D18D00F2D1CD1EE
:1031000003AB05AA04A94046FFF76DFC06466EB95D
:1031100006AADDE90401FFF7A3F938B9079A91B2CD
:103120000698FDF769FD06A8FFF748F908E0404654
:10313000FFF7AEFC00B903E000BF4FF0FF3600BF61
:1031400000BFFDF739FC701C10B90AB0BDE8F08172
:103150007D210598FDF738F80446B4B1701CA0B184
:10316000641C05E014F8012B38467F1C0DF8002084
:103170002078302802DB20783928F3DD00200DF894
:1031800007006846FDF74EF807460F2D01D0032DC6
:1031900005D1049801F000F9059801F0FDF800BF91
:1031A000D3E7000030B5A5B00020219022902390F5
:1031B000249000240025802101A8FCF7DCFF01A851
:1031C000FFF75AFF0446E4B121A805230022214657
:1031D00000900DA0FFF7B6FB98B908E001A8415D8B
:1031E000229A501C229021988154681C05B2A54255
:1031F000F4DB229A91B22198FDF7FEFC21A8FFF79B
:10320000DDF825B030BD0000313034313739343885
:10321000343500007047000008B508490968C9083E
:103220004FF47A72B1FBF2F14143009100BF00BF4D
:1032300000994A1E00920029F9D108BDC00700205C
:10324000704710B5FDF77AFF10BD00B58FB028218B
:1032500005A8FCF790FF14216846FCF78CFF0120BD
:10326000059000040690002007900120099002209C
:103270000C90C1030D914FF4E0110E9105A8FEF7DB
:1032800065F908B1FDF724FD0F20009002200190A0
:10329000002002904FF480600390002004900221EF
:1032A0006846FEF71DF808B1FDF712FD0FB000BD2E
:1032B0007047000010B50268184B984208D0B0F172
:1032C000804F05D0164B984202D0164B984203D13E
:1032D00022F070024B681A43104B984208D0B0F1AC
:1032E000804F05D00E4B984202D00E4B984203D12E
:1032F00022F44072CB681A4322F080034C6943EAFF
:10330000040202608B68C3620B688362034B9842BD
:1033100001D10B6903630123436110BD002C0140FF
:10332000000400400008004030B501F01F050124F2
:1033300004FA05F3046A9C430462046A01F01F0561
:1033400002FA05F52C43046230BD000030B5056A71
:1033500025F001050562026A4368846924F070045F
:1033600024F003040D682C4322F002028D682A43E6
:103370000D4DA84206D100BF22F00802CD682A43B5
:1033800022F00402084DA84207D123F4807323F4ED
:1033900000734D692B438D692B43436084614D68F5
:1033A0004563026230BD0000002C014030B5056A63
:1033B00025F010050562026A4368846924F4E0443C
:1033C00024F440740D6844EA052422F020028D683C
:1033D00042EA05120E4DA84207D100BF22F080023A
:1033E000CD6842EA051222F04002094DA84209D1F7
:1033F00023F4806323F400634D6943EA85038D69F8
:1034000043EA8503436084614D688563026230BD91
:10341000002C014030B5056A25F480750562026A0A
:103420004368C46924F0700424F003040D682C433D
:1034300022F400728D6842EA05220F4DA84207D19E
:1034400000BF22F40062CD6842EA052222F48062C5
:10345000094DA84209D123F4805323F400534D6948
:1034600043EA05138D6943EA05134360C4614D685F
:10347000C563026230BD0000002C014030B5056A12
:1034800025F480550562036A4468C26922F4E0426B
:1034900022F440720D6842EA052223F400538D683D
:1034A00043EA0533064DA84204D124F480444D6913
:1034B00044EA85144460C2614D680564036230BD0E
:1034C000002C014070B505466C6A0020E085E08460
:1034D0002046FEF770FC70BD0168C96821F4907148
:1034E0000268D1600168496921F0010102685161F7
:1034F000016B012905D10168C96821F0100102683A
:10350000D160202180F83E1000210163704710B582
:1035100004462068C06820F040002168C860202070
:1035200084F83D002046FEF70AFF002010BDF8B5E4
:10353000044694F83E00222869D1A068B0F5805F67
:103540000CD1206950B90025A66A20684068C0F3F4
:1035500008003080A06A801CA06215E0A56A0026E1
:10356000A068B0F5805F03D0A06828B9206918B9B9
:1035700020684068287004E02068406800F07F0000
:103580002870A06A401CA062E08D401E80B2E085D9
:10359000A8BB2068C06820F020002168C8602068AF
:1035A000C06820F480702168C8602068406920F0FD
:1035B000010021684861202084F83E00206B01282A
:1035C0001ED1002020632068C06820F01000216810
:1035D000C8602068006800F0100010280AD100BF01
:1035E00000200090206800680090206840680090EB
:1035F00000BF00BFA18D2046FEF7DCFB03E004E026
:103600002046FEF7F3FD0020F8BD0020FCE7022075
:10361000FAE7000070B504462168096921F44051B9
:10362000E2681143226811612269A168114362694D
:1036300041EA02052168C96841F20C6291432943BD
:103640002268D1602168496921F44071A26911435F
:10365000226851612D4A2168914202D1FDF71CFF79
:1036600001E0FDF709FF00EBC00101EB001162680A
:103670009200B1FBF2F100EBC00202EB00126368B2
:103680009B00B2FBF3F26423B2FBF3F202EBC20342
:1036900003EB0212A1EB8201322202EB0111642240
:1036A000B1FBF2F101F0F00100EBC00202EB0012FD
:1036B00063689B00B2FBF3F26423B2FBF3F201EB0D
:1036C000021200EBC00101EB001163689B00B1FB2B
:1036D000F3F100EBC00303EB00136668B600B3FB25
:1036E000F6F36426B3FBF6F303EBC30606EB031312
:1036F000A1EB8301322303EB01116423B1FBF3F14E
:1037000001F00F0111442268916070BD0038014042
:1037100010B5034699629A85DA8500201864222044
:1037200083F83E0000BF002083F83C0000BF18680B
:10373000C06840F480701C68E0601868406940F020
:1037400001001C6860611868C06840F020001C68B7
:10375000E060002010BD014691F83D00212828D1ED
:103760008868B0F5805F0BD1086948B90A6A10888B
:10377000C0F308000B685860086A801C086205E006
:103780000B6A581C086218780B685860C88C401E79
:1037900080B2C88458B90868C06820F080000B68FF
:1037A000D8600868C06840F040000B68D86000200E
:1037B00070470220FCE72DE9F04104460D4617460C
:1037C0009846069E21E0701CF8B12EB1FDF7B0FCC2
:1037D000A0EB0800B04218D92068C06820F4D0706F
:1037E0002168C8602068406920F0010021684861B4
:1037F000202084F83D0084F83E0000BF002084F8BB
:103800003C0000BF0320BDE8F0812068006828402C
:10381000A84201D1012000E00020B842D3D000200E
:10382000F1E7000010B50248FEF7C6FA10BD00002F
:103830006008002010B50248FEF7BEFA10BD000077
:10384000A408002000BFFEE70FB470B5DDE91556EF
:10385000002409E029466D1C4FF0FF33012204A823
:10386000FEF704FD601C84B2B442F3DB70BC5DF86B
:1038700014FB00002DE9F04105462C4600222021D2
:103880001348FDF74FFC00261EE0274607F080078F
:10389000802F05D10122D1030D48FDF743FC05E03F
:1038A00000224FF400410A48FDF73CFC6006040E7C
:1038B000012220210648FDF735FC00222021044882
:1038C000FDF730FC701CC6B2082EDEDBBDE8F081CF
:1038D000000C014010B50446FEF734FD7820FFF7D8
:1038E000C9FFFEF75DFD0020FFF7C4FFFEF758FD9E
:1038F0002046FFF7BFFFFEF753FDFEF73DFD10BD6D
:1039000010B50446FEF71EFD7820FFF7B3FFFEF763
:1039100047FD4020FFF7AEFFFEF742FD2046FFF7D0
:10392000A9FFFEF73DFDFEF727FD10BD0FB4084BC4
:1039300010B504A902AA039800F0FEF8044602A9F3
:10394000002000F090FC204610BC5DF814FB000045
:103950006742000802480068C0F302207047000078
:103960000CED00E010B5002804DB0A07130E054A31
:10397000135406E00A07140E034A00F00F031B1F3E
:10398000D45410BD00E400E018ED00E0004870479A
:10399000CC07002002E008C8121F08C1002AFAD193
:1039A00070477047002001E001C1121F002AFBD1BF
:1039B000704700002DE9FF5F82B00021DDE904308F
:1039C000020DDDF840B0034318D044F61050A2F2C7
:1039D000FF3242431514119801281FD0A5EB0B00AC
:1039E000401C5FEA000A4FF000064E4FDFF83891A6
:1039F000B046504615D5CAF1000413E011980124D1
:103A00004AA3012801D16FEA0B010298119AC0E97B
:103A10000031C0E9024206B0BDE8F09FCBF10000E2
:103A2000DFE704460021404A491842EB0450CDE943
:103A3000001012E0E00707D032463B4640464946B8
:103A4000FCF7A4FC8046894632463B4610461946A0
:103A5000FCF79CFC06460F466410002CEAD1DDE919
:103A60000401DDE90023BAF1000F06DAFCF78EFC51
:103A700042464B46FCF78AFC05E0FCF7F9FC42465F
:103A80004B46FCF7F5FC04460E460022284BFCF79B
:103A9000BFFD03D84FF0FF30014607E00022254B61
:103AA00020463146FCF7CBFBFCF7C7FE102409E0AB
:103AB000002C0ADB0A220023FCF7D8FD039B3032DE
:103AC0001A55641E50EA0102F2D1641C039AC4F133
:103AD00011031444119A012A03D0012208430DD185
:103AE0000AE0084304D000204FF0110B119072E758
:103AF000A3EB0B056D1E0DE05B4504DD4FF00002EE
:103B000005F1010504E003DA4FF00002A5F101051B
:103B1000002AECD002981199C0E90231C0E90045B1
:103B200079E70000000014400000F03F3000000082
:103B30000000F0430000E03F2DE9FF4F95B09B46A9
:103B40008946064600250FE2252877D1002427461E
:103B5000F84A0121059400E0044316F8013F203B98
:103B600001FA03F01042F7D130782A2811D06FF013
:103B70002F033078A0F13002092A16D8059A44F0B4
:103B8000020402EB820203EB42021044761C059011
:103B9000EFE759F8042B0592002A03DA504244F467
:103BA0000054059044F00204761C30782E2816D17B
:103BB00016F8010F44F004042A280DD06FF02F02EC
:103BC0003078A0F13003092B09D807EB870302EB0B
:103BD0004303C718761CF3E759F8047B761C30784A
:103BE0006C280FD006DC4C2817D068280DD06A2826
:103BF00014D104E0742810D07A280FD10DE044F4D9
:103C000000140AE044F4801401E044F44014727893
:103C1000824202D104F58014761C761C3078662826
:103C20000BD013DC582877D009DC002875D0452844
:103C3000F6D04628F4D047281AD19DE118E0632831
:103C400035D0642879D0652812D195E1702873D0D9
:103C500008DC6728F1D069286FD06E280DD06F2856
:103C600006D1B5E073282CD0752875D0782874D08B
:103C70005A46179990476D1C75E1C4F3025002280B
:103C800009D003280DD0D9F8001004280DD00D60FC
:103C900009F1040967E1D9F80010EA17C1E90052F7
:103CA000F6E7D9F800100D80F2E70D70F0E719F88B
:103CB000041B8DF8001000208DF80100EA46012059
:103CC00003E059F804AB4FF0FF3061074FF00001FB
:103CD00002D40DE008F101018846B9420FDA8045AF
:103CE000F8DB1AF808100029F4D108E008F1010106
:103CF00088468142FADB1AF808100029F6D10598A7
:103D00005B46A0EB080721463846179A00F094FA64
:103D1000284400EB080507E04DE029E10DE01AF822
:103D2000010B5A4617999047B8F10108F7D25B4644
:103D300021463846179A13E142E00A220092C4F362
:103D400002524FF0000A022A08D059F804CB032A85
:103D50004FEAEC710AD00DE029E02AE009F10701F1
:103D600021F00702F2E802C1914609E00FFA8CFC4B
:103D70004FEAEC71042A03D14FFA8CFC4FEAEC7144
:103D8000002907DA0A460021DCF1000C61EB020190
:103D90002D2202E0220504D52B228DF804200122D9
:103DA00003E0E20701D02022F7E7904659E00A211C
:103DB00002E010220DE010214FF0000A00910BE00C
:103DC00010224FF0000A44F004040827009203E098
:103DD00008224FF0000A0092C4F30252022A05D0D2
:103DE00059F804CB0021032A08D009E009F10701A2
:103DF00021F00702F2E802C1914605E01FFA8CFCAF
:103E0000042A01D10CF0FF0C4FF00008220728D53E
:103E1000702806D0009B83F0100353EA0A0305D0F4
:103E20000EE040228DF80420012208E05CEA010245
:103E300006D030228DF804208DF80500022290462D
:103E4000009B83F0080353EA0A030AD15CEA0102EB
:103E500001D1620705D530228DF804204FF001080A
:103E60007F1E582804D034A003900EA802900DE0C5
:103E700036A0F9E753466046009AFCF7F7FB844604
:103E80000398825C0298401E029002705CEA010076
:103E9000F0D1029806A9081A00F1200A600702D59D
:103EA00024F4803400E00127574502DDA7EB0A0027
:103EB00000E0002000EB0A01009005984144401A00
:103EC0000590E00306D45B462146179A059800F05A
:103ED000B3F90544002706E001A85A46C05D1799CA
:103EE00090476D1C7F1C4745F6DBE0030CD55B4615
:103EF0002146179A059800F09FF9054404E0302008
:103F00005A46179990476D1C0099481E0090002949
:103F1000F5DC08E0029802995A460078491C0291A3
:103F2000179990476D1CBAF10001AAF1010AF1DC62
:103F300065E100000928010030313233343536376D
:103F400038396162636465660000000030313233E5
:103F50003435363738394142434445460000000085
:103F600000F058F90544761C307800287FF4ECAD59
:103F700019B02846BDE8F08F620700D4062709F182
:103F8000070222F0070CFCE80223E14603F0004898
:103F90005FEA080C02D00FF2702C0DE05FEA045CBF
:103FA00002D50FF2682C07E05FEAC47C02D00FF262
:103FB000602C01E0AFF2700C4FF0FF3823F00043AB
:103FC000CDF850C065280CD006DC452809D046281D
:103FD0001DD047283DD13DE0662818D067287ED106
:103FE00038E00021112F01DB112000E0781CCDE921
:103FF000000106A90EA8FFF7DDFCDDE90F010E9A0E
:1040000003910021009207F1010A04914DE04FF065
:1040100000400097CDE9011006A90EA8FFF7CAFCE1
:10402000DDE90F0203920E9B11990022DDF80CA02E
:104030000093049211B9791C00EB010AB7EB0A0056
:1040400004D4C0F1FF3007F1010A0490AAEB070085
:10405000019044E0012F00DA01270021112F01DD3A
:10406000112000E03846CDE9000106A90EA8FFF7AF
:10407000A1FCDDE90F010E9A039100210491009249
:10408000BA4621070CD40399514500DA8A46BAF1A1
:10409000010F05DD009AAAF10101515C302908D019
:1040A000B84202DA10F1040F06DA0121CDE901105D
:1040B00015E0AAF10101E9E7002805DC04990144B3
:1040C0000491AAEB000102E0411C514500DD8A4643
:1040D0000499401A401C01904FF0004002902007C4
:1040E00004D40198504501DBCDF8048000208DF800
:1040F0004F0002980DF14F07B0F1004F25D02B2053
:104100000E9002984FF0020800280CDA404202900C
:104110002D200E9007E00A210298FCF791FA303129
:10412000029007F8011DB8F10001A8F10108F2DCC6
:1041300002980028EFD1791E0E980870307800F0B0
:10414000200040F0450007F8020D12A8C01B00F146
:1041500007081498007800B1012000EB0A010198CB
:1041600001EBE07105984144401A401E0590E003C0
:1041700006D45B462146179A059800F05DF8054481
:104180001498007818B15A46179990476D1CE003AF
:1041900024D55B462146179A059800F04DF8054452
:1041A0001CE00498002807DBDDE90301884203DDF9
:1041B0000098405C179901E0179930205A469047C3
:1041C000049805F10105401C04900198401E0190DF
:1041D00004D12E205A46179990476D1CBAF1000160
:1041E000AAF1010ADDDC05E017F8010B5A46179920
:1041F00090476D1CB8F10001A8F10108F4DC5B46A2
:104200002146179A0598ABE62D0000002B00000010
:10421000200000002DE9F041044600251E46174607
:10422000880404D405E039462020B0476D1C641E84
:10423000F9D52846BDE8F0812DE9F0410446002576
:104240001E469046C80301D5302700E02027880489
:1042500004D505E041463846B0476D1C641EF9D5CB
:104260002846BDE8F0810A68531C0B601070704747
:104270001FB5122203212020FEF770FE1322032116
:104280003020FEF76BFE102203214020FEF766FE71
:10429000112203215020FEF761FE4FF47A70FCF7E3
:1042A0009DFD002102910846039110490022104B08
:1042B000CDE900011046114600F008FC00210291F2
:1042C0000A4803910A460A4BCDE90010084600F05F
:1042D000F3FD4FF47A70FCF781FD00F057FD4FF4C9
:1042E0007A70FCF77BFD00F091FA1FBD00004E4094
:1042F000000049402DE9F05F044689460E4D0F4EFF
:10430000DFF83CA0DFF83CB0A4F15000FCF71FF947
:1043100007462A463346FCF739F80B4A03C2C9F16F
:104320006B00FCF714F9074652465B46FCF72EF883
:10433000064A03C2BDE8F09F713D0AD7A370D43F7F
:10434000602CF9C5925FD43F98010020A0010020A5
:1043500018B504460020009006E04FF47A7000F093
:1043600007F80098401C00900098A042F5D318BDB3
:104370000CB5002101910BE00B21009102E00099A6
:10438000491E009100990029F9D10199491C019118
:1043900001998142F0D30CBD10B5002821D0114BFA
:1043A0000022001F196803E0814203D80A464968C9
:1043B0000029F9D152B11368841A9C4204D10068D3
:1043C00018441060104602E0506000E0186039B1F7
:1043D00002680B1A934203D10B681A4402604968C1
:1043E000416010BDC4070020FCF7B4FEFEF72DFFAE
:1043F000FEF798FBFEF7DEFBFEF730FCFEF7A6FCAF
:10440000FEF782FCFCF70EFB03E04FF4FA70FCF7BA
:10441000E5FCFEF7E3FD0028F7D1FCF7CDFAFEF747
:10442000D5FCFEF7B3FC01223B493C48FDF7BCFE3E
:1044300000F0CEF900F0BCFF39480478394805781F
:104440003948067866E0072200210846FEF786FD17
:10445000082200211020FEF781FD092200212020E2
:10446000FEF77CFD0A2200213020FEF777FD0B22AB
:1044700000214020FEF772FD0C2200215020FEF7A3
:104480006DFD274804782748057827480678C82016
:10449000FCF7A4FC29462046FFF72CFF422E08D14A
:1044A000FFF7E6FE0320FEF729FD0420FEF726FDB8
:1044B0000CE0592E08D101F06FF80320FEF71EFD25
:1044C0000420FEF71BFD01E000F0A0F9412617488B
:1044D0000088401C80B215490880502806DBFEF792
:1044E00061FE002011490880FCF766FA0320FCF702
:1044F00071FA0F4908600846006818B1084600685C
:10450000FEF7E6FD0A20FCF769FC0A480068401C3B
:104510000849086097E7000088010020A4080020EF
:1045200090010020910100209201002080010020D4
:1045300084010020B0070020F0B50B30154D20F0AD
:1045400007010024144A0FE003688B420BD38B420F
:1045500005D95E1A43184768C3E9006700E043685D
:10456000136002C004E0021D10680028ECD1204650
:10457000002802D1286808B10020F0BD064A07488B
:104580001060074A121A22F00702C0E90024012035
:104590002860D7E7C8070020C40700204C0A002085
:1045A000480C002030B50146424A127872B92C29D5
:1045B0000CD101223F4B1A703F4A14781278521CDA
:1045C0003D4D2A703D4A22F8141072E0394A1278A3
:1045D000012A0ED112290CD10222364B1A70364A0A
:1045E00014781278521C344D2A70344A22F8141070
:1045F0005FE0304A1278022A2AD12F4A14781278C2
:10460000521C2D4D2A702D4A22F814102A46127879
:10461000062A01DAFF294CD10322264B1A70264ABA
:104620001278121F254B13F81220254B1A70224ABC
:104630001278D21E214B13F81220224B1A701E4AF8
:104640001278921E1D4B13F812201F4B1A7030E087
:10465000184A1278032A1DD1174A1278521E174B96
:1046600033F812205B2A05D10022134B1A70114B2C
:104670001A701EE000220F4B1A700F4B1A700020A8
:1046800005E000220D4B23F81020421CD0B20A286E
:10469000F7DB0EE00022074B1A70074B1A70002060
:1046A00005E00022054B23F81020421CD0B20A2856
:1046B000F7DB30BDA9010020A8010020B0090020CF
:1046C0009201002090010020910100202DE9F04F7F
:1046D00089B004460D4616461F46DDE914ABDDE9F8
:1046E0001289DDE91801CDE90601DDE9160132463E
:1046F0003B468DE8000FCDE904012046294600F035
:1047000093FE002213462A4903C9FBF769FF06D02E
:10471000274903C9FBF74BFF264909684863002274
:104720001346254903C9FBF75BFF06D0224903C99D
:10473000FBF73DFF1F4909688863002213461F49A4
:1047400003C9FBF74DFF06D01C4903C9FBF72FFF38
:1047500018490968C86300221346194903C9FBF7C1
:104760003FFF06D0164903C9FBF721FF114909682D
:10477000086400221346134903C9FBF731FF06D032
:10478000104903C9FBF713FF0F490968886300222A
:1047900013460E4903C9FBF723FF06D00B4903C993
:1047A000FBF705FF08490968086409B0BDE8F08F08
:1047B00028010020180800203001002038010020C6
:1047C0004001002048010020D007002050010020B7
:1047D00010B500210B48FDF783FA04210948FDF7C5
:1047E0007FFA08210748FDF77BFA0C210548FDF701
:1047F00077FA04210448FDF773FA0C210248FDF70B
:104800006FFA10BD18080020D00700202DE9F04FE6
:104810008DB03BE0A7480068FBF799FE04460D46C3
:10482000A4480068FBF793FECDE90A01A24800689E
:10483000FBF78DFE06460F46A0480068FBF787FE93
:1048400082468B469E480068FBF781FE804689467B
:104850009C480068FBF77BFECDE90645CDE90801E1
:10486000DDE90A0142464B46CDE900ABCDE90267DE
:10487000CDE90401DDE90801FFF728FF0A20FFF771
:1048800067FD90480068401E8E4908608D480068AA
:104890000028BFDA39E087480068FBF758FE044675
:1048A0000D4684480068FBF752FECDE90A018248B4
:1048B0000068FBF74CFE8046894680480068FBF79D
:1048C00046FE06460F467E480068FBF740FECDE9EF
:1048D00008017C480068FBF73AFE82468B46CDE92A
:1048E0000645DDE90A018DE8C003CDE90401504623
:1048F0005946DDE90823FFF7E9FE0A20FFF728FD06
:104900006D480068401C6C4908606B4800680028CE
:10491000C1DD3BE067480068FBF719FE8046894629
:1049200064480068FBF713FE82468B4662480068C5
:10493000FBF70DFECDE90A0160480068FBF707FEB2
:1049400004460D465E480068FBF701FECDE908010C
:104950005C480068FBF7FBFD06460F46CDE904AB5B
:10496000CDE90689DDE90A01CDE90045CDE902017D
:1049700030463946DDE90823FFF7A8FE0A20FFF795
:10498000E7FC4E480068401E4C4908604B480068F0
:104990000028BFDA3DE047480068FBF7D8FD044631
:1049A0000D4644480068FBF7D2FD06460F464248D4
:1049B0000068FBF7CCFDCDE90A0140480068FBF731
:1049C000C6FDCDE908013E480068FBF7C0FD824600
:1049D0008B463C480068FBF7BAFD80468946CDE926
:1049E0000467CDE90645DDE90A01CDE90201DDE90B
:1049F000080152465B46CDE9000140464946FFF7B3
:104A000065FE0A20FFF7A4FC2D480068401E2C49D3
:104A100008602B4800680028BDDA37E025480068A8
:104A2000FBF795FD04460D4622480068FBF78FFD15
:104A300006460F4620480068FBF789FD80468946F8
:104A40001E480068FBF783FD82468B461C480068C1
:104A5000FBF77DFDCDE90A011A480068FBF777FDF9
:104A6000CDE900ABCDE90289CDE90467CDE9064582
:104A7000CDE9080108A80FC8FFF728FE0A20FFF7B4
:104A800067FC0C480068401E0A4908600948006835
:104A90000028C3DA00200B4908600949086007496B
:104AA00008600549086008490860024908600DB0BF
:104AB000BDE8F08F340000202C00002028000020EA
:104AC0002400002020000020300000202DE9F04FBD
:104AD00091B004460D4616461F4600221346204656
:104AE0002946FBF795FD2BD20020A34908601CE066
:104AF000A1480068FBF72BFD8046894600210691FE
:104B00000791049105910291039100910A460B4689
:104B1000404601914946FFF7D9FD3220FCF75EF986
:104B200095480068401C9449086093480068FBF76A
:104B30000EFD804622462B46FBF752FD32D8D7E7C2
:104B40000022134620462946FBF74AFD2AD20020C0
:104B5000894908601CE088480068FBF7F8FC80463B
:104B600089460021069107910491059102910391D4
:104B700000910A460B46404601914946FFF7A6FDC3
:104B80003220FCF72BF97C480068401E7A49086007
:104B900079480068FBF7DBFC804622462B46FBF792
:104BA00037FDD8D900207549086021E073480068B6
:104BB000FBF7CDFC804689466F480068FBF7C7FCD1
:104BC00082468B460021069107910491059102913E
:104BD0000391009142464B4601915946FFF776FDFD
:104BE0000A20FFF7B5FB65480068401C6349086070
:104BF00062480068FBF7ABFC804632463B46FBF759
:104C0000EFFCD3D900205E49086028E05C480068CA
:104C1000FBF79DFC8046894658480068FBF797FCE7
:104C200082468B4654480068FBF791FCCDE90E01A3
:104C300000210691079104910591029152465B462D
:104C4000CDE900890391DDE90E01FFF73FFD0A2060
:104C5000FFF77EFB4A480068401C49490860484805
:104C60000068FBF774FC8046DDE91A23FBF7B8FC0B
:104C7000CCD90020434908602CE042480068FBF78B
:104C800066FC804689463E480068FBF760FC824629
:104C90008B463A480068FBF75AFCCDE90E013648CE
:104CA0000068FBF754FCCDE90C010020069007904A
:104CB0000490CDE900ABCDE9028905900CA80FC89E
:104CC000FFF704FD0A20FFF743FB2E480068401E53
:104CD0002C4908602B480068FBF739FC8046DDE969
:104CE0001C23FBF795FCC8D90020274908603BE04E
:104CF00025480068FBF72BFC80468946224800685F
:104D0000FBF725FC82468B461E480068FBF71FFC1C
:104D1000CDE90E011A480068FBF719FCCDE90C013A
:104D200016480068FBF713FCCDE90A011248006839
:104D3000FBF70DFCCDE904ABCDE90689CDE908010F
:104D4000DDE90E01CDE90201DDE90C01CDE900014B
:104D500008A80FC8FFF7BAFC0A20FFF7F9FA0A48BB
:104D60000068401C08490860074800685A28BFDDF1
:104D700011B0BDE8F08F00002000002024000020CA
:104D8000280000202C000020340000202DE9F04FE6
:104D90008DB00020434908603BE043480068FBF7C2
:104DA000D6FB04460D4640480068FBF7D0FB06469C
:104DB0000F463C480068FBF7CAFBCDE90A013B48B7
:104DC0000068FBF7C4FB8046894639480068FBF75A
:104DD000BEFBCDE9080137480068FBF7B8FB824607
:104DE0008B46CDE90467CDE90645DDE90A01CDE949
:104DF0000089CDE9020150465946DDE90823FFF755
:104E000065FC0A20FFF7A4FA26480068401E2549E1
:104E100008602448006810F1460FBEDA5A20224983
:104E2000086037E020480068FBF791FB04460D4618
:104E30001D480068FBF78BFB06460F4619480068C3
:104E4000FBF785FB8046894618480068FBF77FFB27
:104E500082468B4616480068FBF779FBCDE90A01CC
:104E600014480068FBF773FBCDE900ABCDE902897C
:104E7000CDE90467CDE90645CDE9080108A80FC8CA
:104E8000FFF724FC0A20FFF763FA07480068401E7A
:104E900005490860044800680028C3DA0DB0BDE881
:104EA000F08F00002C00002034000020280000209B
:104EB00024000020200000202DE9F04F91B006468C
:104EC0000F4614461D46DDE91C01FBF751FB9449D2
:104ED00008603FE093480068FBF739FB804689464D
:104EE00090480068FBF733FBCDE90E018C48006861
:104EF000FBF72DFBCDE90C018B480068FBF727FB86
:104F0000CDE90A0189480068FBF721FB82468B4600
:104F100087480068FBF71BFBCDE90689CDE908014E
:104F2000DDE90E01CDE90401DDE90C01CDE9020165
:104F3000DDE90A0152465B46CDE90001DDE90801E1
:104F4000FFF7C4FB0A20FFF703FA75480068401C0E
:104F500073490860724800680028BBDDDDE91A016A
:104F6000FBF706FB704908603FE06E480068FBF7FE
:104F7000EEFACDE90E016B480068FBF7E8FACDE9DF
:104F80000C0167480068FBF7E2FA804689466648EC
:104F90000068FBF7DCFACDE90A0164480068FBF71A
:104FA000D6FA82468B4662480068FBF7D0FACDE914
:104FB0000801DDE90E01CDE90601DDE90C01CDE9CD
:104FC0000289CDE90401DDE90A0152465B46CDE9DB
:104FD0000001DDE90801FFF779FB0A20FFF7B8F9C6
:104FE00051480068401E504908604F48006800283A
:104FF000BBDA20462946FBF7BBFA4C4908603BE088
:1050000048480068FBF7A3FA80468946454800688F
:10501000FBF79DFA82468B4641480068FBF797FAFA
:10502000CDE90E0140480068FBF791FACDE90C018B
:105030003E480068FBF78BFACDE90A013C4800685E
:10504000FBF785FACDE904ABCDE90689CDE9080186
:10505000DDE90E01CDE90201DDE90C01CDE9000138
:1050600008A80FC8FFF732FB0A20FFF771F92F4895
:105070000068401E2D4908602C480068FBF767FA5D
:10508000804622462B46FBF7C3FAB9D9304639464B
:10509000FBF76EFA264908603BE022480068FBF700
:1050A00056FA804689461F480068FBF750FA824648
:1050B0008B461B480068FBF74AFACDE90E011A48F7
:1050C0000068FBF744FACDE90C0118480068FBF7CB
:1050D0003EFACDE90A0116480068FBF738FACDE937
:1050E00004ABCDE90689CDE90801DDE90E01CDE982
:1050F0000201DDE90C01CDE9000108A80FC8FFF7A6
:10510000E5FA0A20FFF724F909480068401C08491D
:105110000860074800685A28BFDD11B0BDE8F08F6D
:105120002C00002034000020280000202400002053
:10513000200000202DE9F04F91B006460F4614469E
:105140001D46DDE91C01FBF713FA944908603FE0B6
:1051500093480068FBF7FBF9804689469048006851
:10516000FBF7F5F9CDE90E018C480068FBF7EFF984
:10517000CDE90C018B480068FBF7E9F9CDE90A019C
:1051800089480068FBF7E3F982468B468748006848
:10519000FBF7DDF9CDE90689CDE90801DDE90E016E
:1051A000CDE90401DDE90C01CDE90201DDE90A01E7
:1051B00052465B46CDE90001DDE90801FFF786FABA
:1051C0000A20FFF7C5F875480068401C734908605D
:1051D000724800680028BBDDDDE91A01FBF7C8F959
:1051E000704908603FE06E480068FBF7B0F9CDE910
:1051F0000E016B480068FBF7AAF9CDE90C0167487E
:105200000068FBF7A4F98046894666480068FBF70A
:105210009EF9CDE90A0164480068FBF798F98246D7
:105220008B4662480068FBF792F9CDE90801DDE999
:105230000E01CDE90601DDE90C01CDE90289CDE9D8
:105240000401DDE90A0152465B46CDE90001DDE9D2
:105250000801FFF73BFA0A20FFF77AF85148006887
:10526000401E504908604F4800680028BBDA2046BD
:105270002946FBF77DF94C4908603BE04848006847
:10528000FBF765F98046894645480068FBF75FF9FA
:1052900082468B4641480068FBF759F9CDE90E017B
:1052A00040480068FBF753F9CDE90C013E4800681F
:1052B000FBF74DF9CDE90A013C480068FBF747F9D7
:1052C000CDE904ABCDE90689CDE90801DDE90E01A0
:1052D000CDE90201DDE90C01CDE9000108A80FC804
:1052E000FFF7F4F90A20FFF733F82F480068401E53
:1052F0002D4908602C480068FBF729F980462246B2
:105300002B46FBF785F9B9D930463946FBF730F91A
:10531000264908603BE022480068FBF718F9804600
:1053200089461F480068FBF712F982468B461B48E6
:105330000068FBF70CF9CDE90E011A480068FBF78D
:1053400006F9CDE90C0118480068FBF700F9CDE932
:105350000A0116480068FBF7FAF8CDE904ABCDE97D
:105360000689CDE90801DDE90E01CDE90201DDE99B
:105370000C01CDE9000108A80FC8FFF7A7F90A2022
:10538000FEF7E6FF09480068401C08490860074826
:1053900000684628BFDD11B0BDE8F08F2C0000206A
:1053A00034000020280000202400002020000020DD
:1053B00000B589B0002106910791049105910291F1
:1053C000039100910A460B4608460191FFF77EF9CA
:1053D0004FF47A70FBF702FD00210C4A1160516016
:1053E00000200B4A106050600A4A106050600A4A60
:1053F00011605160094A116051600949094A03C2AC
:105400004FF47A70FBF7EAFC09B000BDC800002039
:10541000D0000020D8000020E0000020E80000209C
:1054200000805640F00000202DE9F04F87B006467E
:105430000F4690469946DDE9104500224D4B304617
:105440003946FAF7FCFE00224A4BCDE90201FBF790
:105450000FF80022484BCDE90401FAF7F0FE82462E
:105460000022464BFAF792FF454A03C20022414B05
:1054700040464946FAF7E3FE824600223D4BFAF7E2
:10548000F7FF00223C4BCDE90201FAF7D8FE0022DB
:105490003A4BCDE90401FAF779FF3A4A03C285F0A5
:1054A00000400022334BCDE9004020460199FAF735
:1054B000C6FE824600222F4BFAF7DAFF00222E4B5F
:1054C000CDE90201FAF7BBFE00222C4BCDE9040125
:1054D000FAF75CFF2C4A03C20022264BDDE91201D9
:1054E000FAF7ADFE82460022224BFAF7C1FF0022F6
:1054F000214BCDE90201FAF7A2FE00221F4BCDE9B4
:105500000401FAF743FF214A03C20022194BDDE9E7
:105510001401FAF794FE82460022164BFAF7A8FF10
:105520000022154BCDE90201FAF789FE0022134B48
:10553000CDE90401FAF72AFF154A03C200220D4BF8
:10554000DDE91601FAF77BFE00220A4BCDE90201E4
:10555000FAF78EFF82460022074BFAF770FE002210
:10556000064BCDE90401FAF711FF0A4A03C207B05E
:10557000BDE8F08F008056400000E03F00408F40C3
:1055800028010020300100203801002040010020C7
:1055900048010020500100201FB50D2203212020CA
:1055A000FDF7DCFC0E2203213020FDF7D7FC0F2293
:1055B00003214020FDF7D2FC102203215020FDF7EB
:1055C000CDFC112203216020FDF7C8FC4FF47A7056
:1055D000FBF704FC002102910846039110490022C8
:1055E000104BCDE9000110461146FFF76FFA00217C
:1055F00002910B4803910A460A4BCDE90010084678
:10560000FFF798FD4FF47A70FBF7E8FBFFF7BEFB5E
:105610004FF47A70FBF7E2FBFFF7F8F81FBD0000CC
:1056200000004E4000004940000000000000000063
:105630000102030406070809000000000102030438
:105640000040404040404040404041414141414095
:10565000404040404040404040404040404040404A
:1056600040050202020202020202020202020202D9
:1056700002202020202020202020200202020202DE
:105680000202909090909090101010101010101036
:105690001010101010101010101010100202020242
:1056A0000202888888888888080808080808080886
:1056B0000808080808080808080808080202020282
:1056C0004000000041560008E85600080000002095
:1056D000D00700005209000894590008D0070020A4
:1056E00078080000A439000802F2000100047E805E
:1056F00056408300082A7FBDC282FB21098820060C
:10570000040404FF540112FF0A011052F010111199
:105710008985939191FD919193858911117220044E
:105720004040420132FE06021540790004164080D6
:105730007FB2000D131010D0FF901000FE02020285
:10574000FE9F10080300FF0083601F6B0405103FDD
:1057500040407875F00F809E9292929EE0809EB2BB
:10576000D2929E80600010110808F4949292F10089
:1057700001F2929494F80820200589EE98008002A6
:1057800013F28223020180F40A40231806017E806E
:1057900083E000081011201809CA4848494A4848BF
:1057A0004CCA09281816000C10804F4020180778A2
:1057B00080808F803F100D0000F80C0B0808F84027
:1057C000308F08070512D3122101253F040511432C
:1057D00080403F40140A9453321E325210007E869D
:1057E0000A137E9843FF49010612FF80000F11083B
:1057F000CC4A49484ACC18007F88888482A1100688
:10580000FF121252928002147E20140B202020FFDF
:10581000202010901116CA021110A0080D1130108E
:105820000F084840415E40704E412031401722022F
:1058300080000511625A46C0A0040E1018080744E3
:10584000348E81462810284681E0080F10804020C1
:10585000908886808080838C1020400021211B1836
:10586000078205123D39800C0A1310FF1014A4643E
:105870003C27E400030810110444827F0120110D2D
:1058800041817F0105093021180602F21212123DF2
:1058900021C4021202631E0F63030E180F04037269
:1058A000FE420D130103000C13007F202027242447
:1058B000242720204116FCA3040A11004020D817F9
:1058C0001010F0108114050F0402FF2604061121A8
:1058D0001608162120057EC01D7F04200484E43CA8
:1058E000E1061324812E048103120901031349895F
:1058F000FF1009100C24A4A4A4A5F605040511A406
:1059000024140C9F100702FA4A4A4A4F040614FA5C
:10591000A04C08FE0AEA2A2AEA0AC5040D10BF03B1
:10592000040B13601F40CB52322B200244C11A805B
:10593000811808504844C34448507F09118010081A
:1059400040221A0242827F880C04150A12608005E8
:1059500021FE0E142480052406080888482F000C18
:105960000610092F488808C00411A10C0913F887F4
:1059700080FC4020FF103F042A011F2D3B050C0531
:10598000114F4044474005D54E4132BC050000242C
:04599000F4CB06004E
:04000005080000ED02
:00000001FF
