:100F7D004D5154540065737031307C7365637572D7
:100F8D00656D6F64653D332C7369676E6D6574684F
:100F9D006F643D686D6163736861317C006573706A
:100FAD0031302661315A716D49585375536900635B
:100FBD006533356266383061316233306134616179
:100FCD003666393434616661626536336537393179
:100FDD0063393163653239002F7379732F61315A5B
:100FED00716D4958537553692F65737031302F7476
:100FFD0068696E672F6576656E742F70726F706598
:10100D007274792F706F7374007B226D6574686FC5
:10101D0064223A227468696E672E6576656E742E49
:10102D0070726F70657274792E706F7374222C22CA
:10103D006964223A22333935303431323330222C3F
:10104D0022706172616D73223A7B220054656D00CE
:10105D00223A002C2248756D007D2C227665727324
:10106D00696F6E223A22312E302E30227D003A00E9
:10107D00415445300041542B43574D4F44453D316C
:10108D000041542B43574A41503D2257494649226E
:10109D002C223030303030303030220041542B4350
:1010AD00495053544152543D22544350222C2261F5
:1010BD00315A716D4958537553692E696F742D618D
:1010CD00732D6D7174742E636E2D7368616E676808
:1010DD0061692E616C6979756E63732E636F6D2214
:1010ED002C313838330041542B4349504D4F444532
:1010FD003D310041542B43495053454E44004D0062
:0C110D002C224E0044004E0048756D007E
:1018480002230000041300000000040D0000000043
:10185800021D0000024D0000015100014B5A014ACF
:101868001E011700011A00021100000121000122C7
:0E1878001201251E01200001080002090000D7
:0B1B3900EF1FAC0670011E4C70F6227E
:041965007F647E001D
:10196900D3EF9400EE940040147D6E7C00ED1D7061
:0D197900011CED4C70F7EF1F70E61E80E3BF
:01198600223E
:051B2D00121A347F05CF
:071B3200AE071FEE70FA225E
:101A5F0053890F438920759850758DFD858D8BE4C3
:0B1A6F00F587D2BCD2AFD2ACD28E22E1
:10000E005389F05389F0438901758CDCE4F58AD26B
:04001E00A9D2AF2292
:0F1A25007FC0121A34FF121A347FC0121A34FF16
:0E1A3400C2ACC2998F993099FDC299D2AC22F2
:101987001212B7FF600C121B2D740129F9E43AFA01
:1019970080EE7F05121B327F0D121B2D7F0A021A64
:0119A700340B
:1017C700B3E433F51D2430F51D7F30121A347F8CB6
:1017D700121A347F01121A341F121A347F30121A68
:0E17E700347BFF7A0F79E51217F57A10791628
:1017F5001212B7FF600C121B2D740129F9E43AFA95
:0318050080EE2250
:101715007F10121A347F70121A34E4FF121A347FC4
:1017250004121A347BFF7A0F797D1217F57F0412A4
:101735001A347FC2121A34E4FF121A347F64121A63
:10174500307F27121A347A0F79821217F5E4FF12C7
:101755001A347F11121A347A0F79AA1217F5E4FF99
:0F176500121A347F28121A347A0F79BC0217F542
:1014BC001216B5E51875F064842430F513E518752B
:1014CC00F00A8475F00A84E5F02430F514E51875FB
:1014DC00F00A84E5F02430F515E51975F0648424E0
:1014EC0030F50DE51975F00A8475F00A84E5F024E1
:1014FC0030F50EE51975F00A84E5F02430F50F7F10
:10150C0030121A347F9A1217D77A1079591217F5AC
:10151C007A10795D1217F57B007A0079131217F5A2
:10152C007BFF7A1079601217F57A10795D1217F536
:10153C007B007A00790D1217F57BFF7A1079660221
:02154C0017F591
:100B060012000EC28C75CB0B75CADCD2CAD2ADD21E
:100B1600AF7FE87E03121969121A5F751B00751CF8
:100B2600011211191219C9E52275F00A84FB7A001F
:100B3600755601755708E4FD7F4E121410E52275AF
:100B4600F00A84E5F0FB7A00755601755708E4FD56
:100B56007F541214107BFF7A10797B755708E4FDD9
:100B66007F5A121808E52575F00A84FB7A00755637
:100B760001755708E4FD7F60121410E52575F00A2B
:100B860084E5F0FB7A00755601755708E4FD7F662B
:100B96001214107BFF7A10797B755708E4FD7F6C81
:100BA600121808E52075F00A84FB7A00755601755F
:100BB6005708E4FD7F72121410E52075F00A84E5EB
:100BC600F0FB7A00755601755708E4FD7F7812141C
:100BD600107B06E4FDFF1215DA7B07E4FD7F0F129A
:100BE60015DA7B08E4FD7F1E1215DA7B09E4FD7F2A
:100BF6002D1215DA7B0AE4FD7F3C1215DAE51C643A
:100C060001451B6003020CEFC28CC2837F64FE1297
:100C16001969D2837FD07E07121969754F00755006
:100C2600127BFF7A10797D121987E527B44F06E506
:100C360028644B6007C2A112196580EED2A1E4F5C3
:100C460027F5287BFF7A107982121987E527B44F9A
:100C560006E528644B6007C2A212196580EED2A28F
:100C6600E4F527F5287BFF7A10798E121987E52798
:100C7600B44F06E528644B6007C2A312196580EEDF
:100C8600D2A3E4F527F5287BFF7A1079A9121987F4
:100C9600E527B44F06E528644B6007C2A412196520
:100CA60080EED2A4E4F527F5287BFF7A1079F312BB
:100CB6001987E527B44F06E528644B6005121965C8
:100CC60080F07BFF7A117900121987E527643E6070
:100CD60007C2A612196580F3D2A612171512196556
:100CE600D28CC2A7E4F51BF51CE51C451B6003026C
:100CF6000EE77F64FE121969E51764016003020DB1
:100D0600ECC28C1214BCE4F517E51F64017024D202
:100D160090FB7D027F321215DA7B017D027F421243
:100D260015DA7B027D027F521215DA0512E5127082
:100D3600020511E51F702EC2907B037D027F3212E1
:100D460015DA7B047D027F421215DA7B057D027F70
:100D5600521215DA755606755708AB12AA117D029E
:100D66007F5A121410E551707BE519C3954B40026A
:100D7600C2A5E518C3954A4002C2A5E518C3954A1F
:100D86005009E519C3954B5002D2A5A290B3E4339E
:100D9600F51D2430F51DA2A5B3E433F54D2430F539
:100DA6004D7F30121A347F921217D77A11790B12AF
:100DB60017F57A10795D1217F57B007A00791D1206
:100DC60017F57BFF7A11790D1217F57A10795D12F6
:100DD60017F57B007A00794D1217F57BFF7A1079AB
:100DE600661217F5D28CE524640145236003020ED2
:100DF600E7C28CE52964547040E52C64316006E551
:100E06002C64307034E55170057551018003E4F5AA
:100E160051E5511217CC7A1179111217F57A10791A
:100E26005D1217F57B007A00791D1217F57BFF7AA4
:100E36001079661217F5E4F51AE5516401600302AC
:100E46000ECEE5296441703DE52C64316006E52C43
:100E560064307031209004D2908002C290A2901229
:100E660017C77A11790B1217F57A10795D1217F5F3
:100E76007B007A00791D1217F57BFF7A10796612CE
:100E860017F5E4F51AE5296442703DE52C643160F6
:100E960006E52C64307031208104D2818002C28143
:100EA600A2811217C77A1179131217F57A10795D94
:100EB6001217F57B007A00791D1217F57BFF7A1061
:100EC60079661217F5E4F51AD28CE4F523F524F5C4
:100ED6004CAF4C054CEF60097427254CF8E4F680BE
:100EE600F0E51C6402451B7047C2A6121A25121AA9
:100EF600257FF47E011219697521C81521E5216047
:100F06001DC28C7F0A7E00121969E527B4D0ECD287
:100F1600A6E4F51BF51CF51AF54CF527D28CE52150
:100F2600D39400500B751B00751C01E4F54CF52796
:100F36007BFF7A1079597557107D047F3C1218088B
:100F46007BFF7A1179157557107D067F3C121808BC
:100F5600E518FB7A007556067557087D047F4B1217
:100F66001410E519FB7A007556067557087D067F3D
:070F76004B121410020B2DB9
:0300230002136461
:0B136400C0E0C0D075D000C000C00782
:10136F00209803021405C2A9C298859926742725CF
:10137F0008F8A62674272508F8E6FF647B6009EFB6
:10138F0064706004EFB4D00A75080074272508F85C
:10139F00A62674272508F8E6FF640A601FEFB47DC0
:1013AF000A74262508F8E66422601174262508F8C9
:1013BF00E6B4D01374272508F8E6700B750800758E
:1013CF00230075240180080508752300752400E5A6
:1013DF0008C39422401C75080075230075240075FE
:1013EF000800AF080508EF600974272508F8760094
:0813FF0080F0D2A98002C2991E
:09140700D007D000D0D0D0E032B3
:03000B0002177465
:06177400C0E0C0F0C0D08F
:10177A00758CDC758A00050AE50A70020509C394AE
:10178A002CE50994014010750900750A00051A75BF
:10179A001701751F00B2A7E51A75F00584E5F07008
:1017AA0003751F01E51AC3940A400BC28C751A000F
:0617BA00751B00751C0206
:0717C000D0D0D0F0D0E032E0
:03002B0002188731
:10188700C0E0C0D0C2CF050CE50C7002050B641098
:10189700450B70240520E520B43C0575200005257F
:1018A700E525B43C057525000522E522B418037526
:0D18B7002200750B00750C00D0D0D0E0327F
:03002600DFFE22D8
:1019E900D3EF9400EE940040147D6E7C00ED1D70E1
:0D19F900011CED4C70F7EF1F70E61E80E33F
:011A060022BD
:101AAC00D2827F02120026C2827F1E7E001219E9AA
:071ABC00D2827F1E0200260A
:101A4200E4FEFD3082FD7F08120026EE25E0FE3026
:0C1A520082010E2082FD0DBD08E9AF06E8
:011A5E002265
:1016B500121AAC2082593082FD7F28120026121A98
:1016C500428F52121A42A907121A42AC07121A4245
:1016D500AB07121A428F577F19120026E9FFE55210
:1016E5002FFFE433FEEC7583002FFFE5833EFEEB11
:1016F5002FFFE5833EFEE557B5070EE583B50609E1
:0F17050085525389548C558B5685551885531929
:0117140022B2
:10002E000000000000000000002F0000000007008C
:10003E00070000147F147F1400242A7F2A12006206
:10004E0064081323003649552250000005030000B2
:10005E0000001C224100000041221C000014083E3A
:10006E0008140008083E0808000000A06000000800
:10007E000808080800006060000000201008040254
:10008E00003E5149453E0000427F40000042615112
:10009E004946002141454B31001814127F100027AC
:1000AE0045454539003C4A4949300001710905036F
:1000BE0000364949493600064949291E00003636A0
:1000CE000000000056360000000814224100001403
:1000DE0014141414000041221408000201510906E0
:1000EE0000324959513E007C1211127C007F494961
:1000FE004936003E41414122007F4141221C007F92
:10010E0049494941007F09090901003E4149497A9F
:10011E00007F0808087F0000417F41000020404119
:10012E003F01007F08142241007F40404040007F85
:10013E00020C027F007F0408107F003E4141413EC9
:10014E00007F09090906003E4151215E007F091911
:10015E0029460046494949310001017F0101003F0E
:10016E004040403F001F2040201F003F4038403F8E
:10017E0000631408146300070870080700615149F2
:10018E00454300007F41410000552A552A55000085
:10019E0041417F0000040201020400404040404003
:1001AE00000001020400002054545478007F48449B
:1001BE00443800384444442000384444487F0038D2
:1001CE005454541800087E0901020018A4A4A47CFB
:1001DE00007F080404780000447D400000408084C5
:1001EE007D00007F102844000000417F4000007C0D
:1001FE0004180478007C0804047800384444443819
:10020E0000FC242424180018242418FC007C080464
:10021E00040800485454542000043F444020003C3D
:10022E004040207C001C2040201C003C4030403CC4
:10023E00004428102844001CA0A0A07C0044645454
:10024E004C44141414141414000000000000000098
:10025E000000000000000000000000F80000000098
:10026E00000000333000000000100C06100C0600D9
:10027E00000000000000000040C07840C078400040
:10028E00043F04043F040400007088FC08300000A2
:10029E00001820FF211E0000F008F000E0180000FA
:1002AE0000211C031E211E0000F0088870000000B3
:1002BE001E2123241927211010160E000000000005
:1002CE000000000000000000000000E01804020022
:1002DE00000000071820400000020418E000000093
:1002EE000040201807000000404080F08040400091
:1002FE000202010F01020200000000F000000000E7
:10030E000101011F010101000000000000000000BA
:10031E0080B070000000000000000000000000002F
:10032E0000010101010101010000000000000000B8
:10033E000030300000000000000000008060180453
:10034E00006018060100000000E010080810E00030
:10035E00000F102020100F00001010F800000000F9
:10036E000020203F20200000007008080888700040
:10037E0000302824222130000030088888483000C0
:10038E000018202020110E000000C02010F80000E0
:10039E0000070424243F240000F808888808080079
:1003AE000019212020110E0000E01088881800008E
:1003BE00000F112020110E0000380808C838080060
:1003CE000000003F000000000070880808887000E0
:1003DE00001C222121221C0000E010080810E00061
:1003EE000000312222110F00000000C0C0000000EA
:1003FE00000000303000000000000080000000000F
:10040E000000806000000000000080402010080006
:10041E0000010204081020004040404040404000CF
:10042E0004040404040404000008102040800000AA
:10043E000020100804020100007048080808F000AF
:10044E000000003036010000C030C828E810E0007F
:10045E000718272423140B000000C038E00000000A
:10046E00203C23020227382008F888888870000074
:10047E00203F202020110E00C03008080808380048
:10048E00071820202010080008F808080810E000BF
:10049E00203F202020100F0008F88888E808100060
:1004AE00203F20202320180008F88888E808100034
:1004BE00203F200003000000C0300808083800006C
:1004CE0007182020221E020008F808000008F8086D
:1004DE00203F210101213F20000808F808080000F4
:1004EE000020203F2020000000000808F808080027
:1004FE00C08080807F00000008F888C0281808009F
:10050E00203F20012638200008F8080000000000D7
:10051E00203F20202020300008F8F800F8F80800CE
:10052E00203F003F003F200008F830C00008F808C8
:10053E00203F200007183F00E01008080810E000D8
:10054E000F10202020100F0008F808080808F000EF
:10055E00203F210101010000E01008080810E00012
:10056E000F18242438504F0008F8888888887000A7
:10057E00203F2000030C3020007088080808380047
:10058E000038202121221C00180808F8080818003D
:10059E000000203F2000000008F808000008F808BE
:1005AE00001F202020201F000878880000C838086F
:1005BE00000007380E010000F80800F80008F800E7
:1005CE00033C0700073C0300081868808068180881
:1005DE0020302C03032C30200838C800C8380800FF
:1005EE000000203F2000000010080808C83808004E
:1005FE002038262120201800000000FE02020200F2
:10060E000000007F40404000000C30C000000000A1
:10061E00000000010638C00000020202FE000000C9
:10062E00004040407F00000000000402020204006F
:10063E0000000000000000000000000000000000AC
:10064E008080808080808080000202040000000094
:10065E00000000000000000000008080808000008C
:10066E000019242222223F2008F80080800000007A
:10067E00003F112020110E0000000080808000003D
:10068E00000E112020201100000000808088F8004C
:10069E00000E112020103F2000008080808000007E
:1006AE00001F222222221300008080F088888818E2
:1006BE000020203F202000000000808080808000ED
:1006CE00006B94949493600008F800808080000082
:1006DE00203F210000203F2000809898000000005D
:1006EE000020203F2020000000000080989800008D
:1006FE0000C08080807F000008F8000080808000AD
:10070E00203F24022D302000000808F800000000D1
:10071E000020203F2020000080808080808080008C
:10072E00203F20003F20003F80800080808000001E
:10073E00203F210000203F200000808080800000AC
:10074E00001F202020201F008080008080000000DD
:10075E0080FFA12020110E0000000080808080000C
:10076E00000E112020A0FF808080800080808000FD
:10077E0020203F212000010000008080808080002A
:10078E000033242424241900008080E0808000009F
:10079E000000001F202000008080000000808000EC
:1007AE00001F202020103F2080808000008080804D
:1007BE0000010E30080601008080008000808080DD
:1007CE000F300C030C300F00008080008080800002
:1007DE000020312E0E31200080808000008080802D
:1007EE0080818E70180601000080808080808000DD
:1007FE000021302C2221300000000000807C0202FB
:10080E0000000000003F404000000000FF0000001C
:10081E0000000000FF0000000002027C80000000CB
:10082E000040403F000000000006010102020404E7
:10083E000000000000000000101010FF109040A0FB
:10084E009E8282829EA02000000000000000000018
:10085E0000000000000000000444827F0100808040
:10086E00432C10284483800000000000000000008C
:10087E00000000000000000000FC0404FC00FE92DA
:10088E0092FE9292FE0000000000000000000000A8
:10089E000000000000000000000F04040F02FE42E2
:1008AE00220E1222528A8200000000000000000078
:1008BE0000000000000000000000F010101010FFFB
:1008CE0010101010F00000000000000000000000EA
:1008DE00000000000000000000000F04040404FFEC
:1008EE00040404040F0000000000000000000000DB
:1008FE00000000000000000080808888888888FF43
:10090E008888888888808000000000000000000031
:10091E00000000000000000020201008040201FF6B
:10092E00010204081020200000000000000000005A
:10093E000000000000000000101010FF109040A0FA
:10094E009E8282829EA02000000000000000000017
:10095E0000000000000000000444827F010080803F
:10096E00432C10284483800000000000000000008B
:10097E00000000000000000000FC0404FC00FE92D9
:10098E0092FE9292FE0000000000000000000000A7
:10099E000000000000000000000F04040F02FE42E1
:1009AE00220E1222528A8200000000000000000077
:1009BE00000000000000000040221408F40204C4ED
:1009CE005F44C4445FC40400000000000000000047
:1009DE000000000000000000084482413F0000FFBC
:1009EE0044447F4444FF000000000000000000006B
:1009FE00000000000000000000FC0404FC4044580D
:100A0E0040FF40504C40400000000000000000003D
:100A1E000000000000000000000F04042F10080664
:100A2E0001FF010608102000000000000000000079
:100A3E000000000000000000101010FF109040A0F9
:100A4E009E8282829EA02000000000000000000016
:100A5E0000000000000000000444827F010080803E
:100A6E00432C10284483800000000000000000008A
:100A7E00000000000000000000FC0404FC00FE92D8
:100A8E0092FE9292FE0000000000000000000000A6
:100A9E000000000000000000000F04040F02FE42E0
:100AAE00220E1222528A8200000000000000000076
:100ABE00000000000000000080809E9292929EE056
:100ACE00809EB2D2929E80000000000000000000C6
:100ADE0000000000000000000808F4949292F1005B
:100AEE0001F2929494F8080000000000000000004B
:080AFE000000000000000000F0
:101A7A00EF4E60157D087C07ED1DAA0470011C4A13
:091A8A0070F6EF1F70EA1E80E700
:011A93002230
:091B4400D286D287C287C2862234
:07000300D286C287D28722DA
:0B1B0100121923121B0CAF0412192351
:051B0C00D286C2862212
:07191C00AC07121B447F78A9
:10192300C286E4FEAD07530580BD8004D2878002E2
:0E193300C287EF25E0FFD286C2860EBE08E610
:011941002283
:0E1B110012191C121B0CE4FF121B0102000330
:0E1B1F0012191C121B0C7F40121B0102000346
:1018C400E924B0FFE433FEE4FDFC1218DFE4FDFC80
:0B18D400FFFE1218DF7F10E4FDFCFE99
:1018DF00AB07AA06ED4C6003021B1FAF03121B11CF
:0118EF0022D6
:021942008F6BA9
:10194400E4F91218C4E4F56CAF6B7E007D017C00F1
:101954001218DF056CE56CC3948040EC09B908E209
:011964002260
:101A0700D3EF9400EE940040147D657C18ED1D70B3
:0D1A1700011CED4C70F7EF1F70E61E80E320
:011A2400229F
:101ADA00EF1FAA0670011E4A600BE4FDEDC3947B5A
:051AEA0050EE0D80F735
:011AEF0022D4
:1018F000A907ED24B0FFE433FEE4FDFC1218DFE994
:1019000054F0C4540F7E004410FFE4FDFC1218DFB5
:0C191000E9540FFF7E00E4FDFC0218DF2C
:101AC3007F8D1218DBE4FDFC7F14FE1218DFE4FDAA
:071AD300FC7FAFFE0218DFEB
:101AF000E4FDFC7F8D1218D5E4FDFC7FAEFE0218DC
:011B0000DF05
:1019C900E4F91218C4E4F5527D017C00E4FFFE122B
:0F19D90018DF0552E552C3948040ED09B908E3C9
:0119E80022DC
:1019A800E4F91218C4E4F56D7D017C007F017E0026
:1019B8001218DF056DE56DC3948040EC09B908E2A3
:0119C80022FC
:0411F9008F5B8D5C1F
:1011FD00E4F55FF9EB24E0F55FE55BD3947F400701
:10120D00E4F55B055C055CE55E64107069AD5CAF93
:10121D005B1218F0E4F975F010E55FA429F582E48E
:10122D0035F0F583E5822456F582E5833402F583A6
:10123D00E493FF7E007D017C001218DF09B908D60A
:10124D00E55C04FDAF5B1218F0E4F975F010E55F95
:10125D00A429F582E435F0F583E582245EF582E577
:10126D00833402F583E493FF7E007D017C00121828
:10127D00DF09B908D622AD5CAF5B1218F0E4F97541
:10128D00F006E55FA4242EF582E5F03400F583E544
:10129D008229F582E43583F583E493FF7E007D0199
:0912AD007C001218DF09B906D615
:0112B6002215
:041A94008F5BA905B6
:101A98007F017E00AD0119ED6009AD5B7C0012127B
:031AA800FD80F1CD
:011AAB002218
:081410008F528D538A548B5555
:10141800E4F55AF558E558C3955640030214BBC382
:10142800E556955814FD7F0A121A94AC54AD55CF61
:10143800CDCFCECCCE12130F7C007D0A12130F8DA8
:1014480059E55A7034E55614FFE558C39F502AE50C
:10145800597023E557B40806C3132402800AE557D8
:101468006410704AE557C3138558F0A42552FF85C8
:10147800575E7B208033755A01E557B40815C313AE
:1014880024028558F0A42552FFE5592430FB8557DE
:101498005E8016E557B41016C3138558F0A425527C
:1014A800FFE5592430FB85575EAD531211F90558F5
:0314B80002141DFE
:0114BB00220E
:0A1808008F528D538B548A55895678
:10181200E4F558AB54AA55A956855882758300122F
:1018220012D0FB602085575EAD53AF521211F9748E
:10183200082552F552D394784007E4F55205530532
:0518420053055880CEA3
:01184700227E
:0615DA008F528D538B546B
:1015E000E4F5551218F0E4F975F040E554A42446EA
:1015F000F582E5F03408F583E58229F582E4358348
:10160000F583E493FF7E007D017C001218DF055511
:1016100009B910D4E55304FDAF521218F0E4F9757E
:10162000F040E554A42466F582E5F03408F583E53E
:101630008229F582E43583F583E493FF7E007D0102
:0B1640007C001218DF055509B910D41A
:01164B00227C
:04164C008F608B62BE
:10165000E4F567F568E5635407700BE5631313134E
:10166000541FF56A800AE563131313541F04F56AC7
:101670008D6AE56AC39563503BAD6AAF601218F09E
:10168000856069E569C395625026AB64AA65A96661
:101690000568E568AE677002056714F5828E8312EF
:1016A00012D0FF7E007D017C001218DF056980D317
:0416B000056A80BE89
:0116B4002213
:10111900E4FDFC7FAEFE1218CEE4FDFC7F40FE121A
:1011290018DFE4FDFC7FB0FE1218DFE4FDFC7F81CF
:10113900FE1218DFE4FDFC7FFFFE1218DFE4FDFC60
:101149007FA1FE1218DFE4FDFC7FA6FE1218DFE482
:10115900FDFC7FA8FE1218DFE4FDFC7F3FFE12189C
:10116900DFE4FDFC7FC8FE1218DFE4FDFC7FD3FE3F
:101179001218DFE4FDFCFFFE1218DFE4FDFC7FD549
:10118900FE1218DFE4FDFC7F80FE1218DFE4FDFC8F
:101199007FD8FE1218DFE4FDFC7F05FE1218DFE49C
:1011A900FDFC7FD9FE1218DFE4FDFC7FF1FE121869
:1011B900DFE4FDFC7FDAFE1218DFE4FDFC7F12FE9E
:1011C9001218DFE4FDFC7FDBFE1218DFE4FDFC7F73
:1011D90030FE1218DFE4FDFC7F8DFE1218DFE4FDFE
:1011E900FC7F14FE1218DFE4FDFC7FAFFE0218DF5E
:0300000002154E98
:0C154E00787FE4F6D8FD75816D021595DC
:1012B700BB010689828A83E0225002E722BBFE0235
:0912C700E32289828A83E4932268
:1012D000BB010CE58229F582E5833AF583E02250D3
:1012E00006E92582F8E622BBFE06E92582F8E2221D
:0D12F000E58229F582E5833AF583E4932237
:1012FD00EF8DF0A4A8F0CF8CF0A428CE8DF0A42E05
:02130D00FE22BE
:10130F00BC000BBE0029EF8DF084FFADF022E4CCC2
:10131F00F875F008EF2FFFEE33FEEC33FCEE9DEC8B
:10132F00984005FCEE9DFE0FD5F0E9E4CEFD22EDD1
:10133F00F8F5F0EE8420D21CFEADF075F008EF2F1B
:10134F00FFED33FD4007985006D5F0F222C398FD0C
:05135F000FD5F0EA22A9
:10155A00020B06E493A3F8E493A34003F68001F296
:10156A0008DFF48029E493A3F85407240CC8C33392
:10157A00C4540F4420C8834004F456800146F6DF61
:10158A00E4800B0102040810204080901848E47E91
:10159A00019360BCA3FF543F30E509541FFEE49356
:1015AA00A360010ECF54C025E060A840B8E493A31D
:1015BA00FAE493A3F8E493A3C8C582C8CAC583CA48
:1015CA00F0A3C8C582C8CAC583CADFE9DEE780BE00
:011886000061
:00000001FF
