:020000040800F2
:100000006014002075290008090300080B0300088C
:100010000F03000813030008170300080000000086
:100020000000000000000000000000001B030008AA
:100030001D030008000000001F0300082103000842
:100040008F2900088F2900088F2900088F290008B0
:100050008F2900088F2900088F2900088F290008A0
:100060008F2900088F2900088F2900088F29000890
:100070008F2900088F2900088F2900088F29000880
:100080008F2900088F2900088F2900088F29000870
:100090008F2900088F2900088F2900088F29000860
:1000A0008F2900088F2900088F2900088F29000850
:1000B0008F290008B70500088F2900088F2900083C
:1000C0008F2900088F2900088F2900088F29000830
:1000D0008F290008472800080B1D0008291E00086A
:1000E0008F2900088F2900088F2900088F29000810
:1000F0008F2900088F2900088F2900088F29000800
:100100008F2900088F2900088F2900088F290008EF
:10011000190E00081D2200088F290008C1070008D9
:100120008F2900088F2900088F2900088F290008CF
:1001300000F002F800F0B0F80AA090E8000C824449
:100140008344AAF10107DA4501D100F0A5F8AFF226
:10015000090EBAE80F0013F0010F18BFFB1A43F0A5
:100160000103184794620000B46200000A444FF093
:10017000000C10F8013B13F0070408BF10F8014B06
:100180001D1108BF10F8015B641E05D010F8016B4B
:10019000641E01F8016BF9D113F0080F1EBF10F8AF
:1001A000014BAD1C0C1B09D16D1E58BF01F801CBD2
:1001B000FAD505E014F8016B01F8016B6D1EF9D555
:1001C0009142D6D37047000000230024002500266A
:1001D000103A28BF78C1FBD8520728BF30C148BFAA
:1001E0000B6070476E2904F03E83702904F0A581EE
:1001F000662905F03784652905F03484672905F000
:1002000031846129AFF3008003681B0A28BF41F0E5
:100210008001692904F01681642904F0138175298D
:1002200004F010816F2904F03684782904F071817C
:10023000E92904F0D183E42904F0CE83F52904F000
:10024000CB83EF2904F03384F82904F0708103682C
:10025000DB0928BF41F08001632904F04083732942
:1002600004F04583E32904F08B86F32904F090869B
:10027000002070471FB504F0E1FE040000200021BB
:1002800005F0DAFB401C60600020002105F0BEFB99
:10029000E0601FBD10B510BD04F0A2FE1146FFF7CF
:1002A000E9FF00F009F804F07FFF03B4FFF7F2FF65
:1002B00003BC02F06FFA000002F002FA00F022F92B
:1002C00041F61F4142F20F7000F044F94FF46140D3
:1002D00000F0D1FD4FF4165001F050FD00F00EFD7E
:1002E00000F0A3FB01F024FC4FF47A7002F025FA31
:1002F00006E00448006808B101F091FB01F0DAFD66
:10030000F7E7000018012142704700BFFEE700BF79
:10031000FEE700BFFEE700BFFEE77047704770478B
:10032000704700000CB50020019000906C480068F8
:1003300040F480306A49086000BF6948006800F4F2
:10034000003000900198401C0190009818B9019865
:10035000B0F5A06FF1D16248006800F4003010B130
:100360000120009001E0002000900098012843D176
:100370005C48006840F010005A4908600846006870
:1003800020F0030008600846006840F002000860A2
:1003900053484068524948600846406848600846EB
:1003A000406840F4806048600846406820F47C1053
:1003B00048600846406840F4E81048600846006815
:1003C00040F08070086000BF4548006800F0007091
:1003D0000028F9D04248406820F0030040494860B6
:1003E0000846406840F00200486000BF3C48406852
:1003F00000F00C000828F9D10CBD10B5FFF792FFF2
:1004000010BD10B53648006840F00100344908605E
:100410000846406834490840314948600846006849
:10042000324908402E4908600846006820F48020C0
:1004300008600846406820F4FE0048604FF41F0042
:100440008860FFF7DAFF4FF000602949086010BDAF
:1004500010B5002100200022214B5B6803F00C0145
:1004600021B1042906D0082928D107E0214B224CCC
:10047000236027E01F4B204C236023E0184B5B6870
:1004800003F47010164B5B6803F48032022303EB15
:10049000904022B9194B4343174C23600DE0104B99
:1004A0005B6803F4003323B1144B4343124C2360C5
:1004B00003E0104B4343104C236003E00D4B0E4C04
:1004C000236000BF00BF064B5B68C3F303130C4CF3
:1004D000E15C094B1B68CB40074C236010BD00005A
:1004E00000100240002002400000FFF8FFFFF6FE6F
:1004F00008ED00E000127A000000002000093D0035
:100500000400002008B50121242002F06FFD4FF403
:100510008070ADF8000010208DF8030003208DF8E6
:1005200002006946094802F0A5FA4FF480710748B5
:1005300002F04DFB0420ADF800006946044802F0CB
:1005400099FA0421024802F042FB08BD000801406C
:10055000001401407FB505460C460121022002F03F
:1005600052FDADF80850ADF804400020ADF80A0087
:10057000ADF8060001A99D4803F0E2F801221146FA
:100580009A4803F054FC4FF4A06002F097FF1D203E
:100590008DF8000000208DF8010003208DF8020086
:1005A00001208DF80300684602F08DFF01218F487D
:1005B00003F022FC7FBD08B501218C4803F0E5FE65
:1005C00000287DD00121894803F0F0FE88480068AA
:1005D000401C87490860084600683C2806DB00206C
:1005E000086084480068401C8249086081480068AF
:1005F0003C2807DB00207F4908607F480068401CDA
:100600007D4908607C480068182809D100207A4993
:1006100008600120794908607949086079490860D3
:100620001020022300907448002102681E2000F070
:1006300092FA1020022300906E48002102684120A7
:1006400000F089FA10200223009069480021026816
:10065000692000F080FA10236BA20021322000F004
:10066000BEFA102369A200215A2000F0B8FA102027
:10067000022300906648027819461E2000F06BFAAB
:10068000102002230090634802781946412000F0B0
:1006900062FA1020022300905F4802781946692010
:1006A00000F059FA102358A20221322000F097FAE4
:1006B000102356A202215A2000F091FA102000E0E7
:1006C0004CE0022300905548027804211E2000F0DF
:1006D00042FA102002230090514802780421412060
:1006E00000F039FA1020022300904E4802780421CD
:1006F000692000F030FA102343A20421322000F0D8
:100700006EFA102341A204215A2000F068FA10204A
:10071000022300904448027806211E2000F01BFAB4
:10072000102002230090414802780621412000F069
:1007300012FA1020022300903D4802780621692019
:1007400000F009FA102330A20621322000F047FA07
:1007500010232EA206215A2000F041FA08BD7FB5D1
:1007600005460C460121202002F04DFCADF8045056
:10077000ADF800400020ADF80600ADF80200694673
:100780002C4802F0DDFF012211462A4803F04FFBFE
:100790000121284803F030FB4FF4A06002F08EFEE8
:1007A00037208DF80C0000208DF80D0002208DF808
:1007B0000E0001208DF80F0003A802F084FE7FBD1B
:1007C00010B501211B4803F0E0FD68B11A4800880C
:1007D00040F40040184908800121164803F0E6FD66
:1007E0000021144803F008FB10BD00000004004085
:1007F0001C00002018000020140000202000002011
:1008000024000020280000203A0000003B000000E7
:100810000A0300200B0300200C0300200E0300201D
:100820000F030020100300201103002012030020FA
:100830001303002000140040EC02002010B520211A
:10084000FB4802F0C4F94FF40041F94802F0BFF947
:100850004FF40041F64802F0BCF92021F44802F0C0
:10086000B8F910BD10B52021F14802F0B0F94FF4ED
:100870000041EF4802F0ADF94FF40041EC4802F0BE
:10088000A6F910BD10B52021E94802F0A0F92021F9
:10089000E74802F09EF910BD2DE9F04105462C46CF
:1008A0002021E34802F095F900261AE0274607F0D8
:1008B0008007802F04D13902DD4802F088F904E076
:1008C0004FF40041DA4802F084F96006040E20215A
:1008D000D74802F07CF92021D54802F07AF9701C43
:1008E000C6B2082EE2DBBDE8F08110B50446FFF782
:1008F000A5FF7820FFF7D0FFFFF7C4FF0020FFF728
:10090000CBFFFFF7BFFF2046FFF7C6FFFFF7BAFF99
:10091000FFF7A8FF10BD10B50446FFF78FFF782042
:10092000FFF7BAFFFFF7AEFF4020FFF7B5FFFFF775
:10093000A9FF2046FFF7B0FFFFF7A4FFFFF792FFE4
:1009400010BD70B504460D461DB1E0B2FFF7E3FFE0
:1009500002E0E0B2FFF7C9FF70BD70B506460024A3
:1009600018E004F1B0000021FFF7EBFF002108467A
:10097000FFF7E7FF00211020FFF7E3FF002505E068
:1009800001213046FFF7DDFF681CC5B2802DF7DB83
:10099000601CC4B2082CE4DB70BD06E041F66501C2
:1009A00000E0491E0029FCD1401E0028F6D1704706
:1009B000014605E0002001E0421CD0B27B28FBDBB1
:1009C0000A1EA1F10101F5D1704770B504460D462C
:1009D00005F1B0000021FFF7B4FF102141EA141027
:1009E0000021FFF7AEFF04F00F000021FFF7A9FF81
:1009F00070BD10B500218D20FFF7A3FF002114204A
:100A0000FFF79FFF0021AF20FFF79BFF10BD10B540
:100A100000218D20FFF795FF00211020FFF791FFA7
:100A20000021AE20FFF78DFF10BD70B5002418E047
:100A300004F1B0000021FFF784FF00210846FFF712
:100A400080FF00211020FFF77CFF002505E0012139
:100A50000020FFF776FF681CC5B2802DF7DB601C15
:100A6000C4B2082CE4DB70BD70B5002418E004F1BA
:100A7000B0000021FFF765FF00210846FFF761FF86
:100A800000211020FFF75DFF002505E00121084649
:100A9000FFF757FF681CC5B2802DF7DB601CC4B29E
:100AA000082CE4DB70BD2DE9F04707460E46904662
:100AB000994600250024A8F12000C5B27F2F02DD51
:100AC0000027B01CC6B2B9F1100F24D13146384608
:100AD000FFF77BFF002408E004EB0511554A505C4A
:100AE0000121FFF72EFF601CC4B2082CF4DB701C40
:100AF000C1B23846FFF769FF002409E004EB051195
:100B000008314C4A505C0121FFF71BFF601CC4B246
:100B1000082CF3DB12E031463846FFF756FF00247D
:100B20000AE005EB4501444A02EB4101085D012161
:100B3000FFF707FF601CC4B2062CF2DBBDE8F087AC
:100B400010B50246012000E050430B1EA1F1010444
:100B5000E1B2F9D110BD2DE9FF5F074691461E466F
:100B60000E9D4FF0000A002435E0301B401EC1B23C
:100B70000A20FFF7E5FFB9FBF0F00A21B0FBF1F224
:100B800001FB1208BAF1000F14D1701EA04211DD52
:100B9000B8F1000F0CD1AB4605EBDB71491001FB3E
:100BA0000471C8B22B4620220199FFF77CFF10E0A8
:100BB0004FF0010AAB4605EBDB71491001FB0471F4
:100BC000C8B208F13001CAB22B460199FFF76BFF9A
:100BD00000BF601CC4B2B442C7DBBDE8FF9F2DE973
:100BE000F04104460F461546984600260FE0AA5DE0
:100BF000434639462046FFF756FF04F10800C4B2C9
:100C0000782C02DD0024B81CC7B2701CC6B2A85DE7
:100C10000028ECD1BDE8F0812DE9F04180460E4678
:100C20001546002731464046FFF7CFFE002410E06E
:100C3000000C0140905C0008685A0008744A02EBFE
:100C40008511085D0121FFF77CFE781CC7B2601C8E
:100C5000C4B2102CF2DB701CC1B24046FFF7B5FEE7
:100C600000240CE06900491C694A02EB4111085D4F
:100C70000121FFF766FE781CC7B2601CC4B2102CBD
:100C8000F0DBBDE8F0812DE9F05F06460F469046A7
:100C90001C46DDF828A04FF0000BE11704EB517162
:100CA000C910A4EBC10131B92046E11704EB517121
:100CB000C1F3C70506E02046E11704EB5171C910E6
:100CC000491CCDB23D4615E029463046FFF77DFE72
:100CD000B1460BE059460BF1010B1AF80100012156
:100CE000FFF72FFE09F1010000F0FF09C145F1DB1C
:100CF000681CC5B2A542E7DBBDE8F09F08B501213D
:100D0000082002F073F948F22000ADF8000010202E
:100D10008DF8030003208DF8020069463D4801F07C
:100D2000A9FE012248F220013A4801F054FFC820F0
:100D300001F003FD0021AE20FFF703FE002108466D
:100D4000FFF7FFFD00211020FFF7FBFD00214020F1
:100D5000FFF7F7FD0021B020FFF7F3FD0021812010
:100D6000FFF7EFFD0021FF20FFF7EBFD0021A120A1
:100D7000FFF7E7FD0021A620FFF7E3FD0021A820F3
:100D8000FFF7DFFD00213F20FFF7DBFD0021C8203A
:100D9000FFF7D7FD0021D320FFF7D3FD0021084640
:100DA000FFF7CFFD0021D520FFF7CBFD00218020EC
:100DB000FFF7C7FD0021D820FFF7C3FD0021052064
:100DC000FFF7BFFD0021D920FFF7BBFD0021F12077
:100DD000FFF7B7FD0021DA20FFF7B3FD0021122055
:100DE000FFF7AFFD0021DB20FFF7ABFD0021302036
:100DF000FFF7A7FD00218D20FFF7A3FD00211420A0
:100E0000FFF79FFD0021AF20FFF79BFD08BD00000D
:100E10002C000020000C014010B540F2255159482B
:100E200002F008FBF8B1574802F084FAC4B2564801
:100E3000008800F40040B0B953480088B0F5C87F7E
:100E400012DA0021514803F06BFA4F48008818B9B4
:100E500001214E4802F0D0FF4B490888411C4A4A04
:100E600011804B490C5405E04748008840F400408D
:100E70004549088010BD10B586B0044601211020F8
:100E800002F0B4F80121C80402F0BDF83D4802F0B8
:100E900011F94FF48060ADF8100003208DF81200B6
:100EA00018208DF8130004A93A4801F0E3FD4FF42F
:100EB0000060ADF8100004208DF8130004A9354837
:100EC00001F0D8FD00940020ADF80400ADF8060054
:100ED000ADF80800ADF80C000C20ADF80A0069462A
:100EE000284802F02AF90121264802F0B2F901222D
:100EF00040F22551234802F0B8F94FF4806002F027
:100F0000DDFA34208DF8140002208DF81500012040
:100F10008DF816008DF8170005A802F0D4FA41F6F6
:100F20001F416320FFF71BFC0020174908800021A8
:100F3000164802F061FF06B010BD0FB438B505A821
:100F400000901548009A049903F034FA00200090AC
:100F5000114803F0D3FB85B200240DE000BF40210F
:100F6000084802F051FA0028F9D00B48015D054805
:100F700002F0DCF9601C84B2AC42EFDB38BC5DF8F7
:100F800014FB0000004C0040EC0200200014004064
:100F90004803002000100140D804002000BFF7499A
:100FA000098801F040010029F9D0F449091D0880A1
:100FB000704710B5EF20FFF7F1FF0120FFF7EEFFBC
:100FC00010BD10B5EE490968080EFFF7E7FFEC48C1
:100FD0000068C0F30740FFF7E1FFE9480088C0F36D
:100FE0000720FFF7DBFFE6490878FFF7D7FF10BDC2
:100FF00010B504462046FFF7D1FF10BD10B50446DA
:10100000C4F30720FFF7CAFFE0B2FFF7C7FF10BD28
:1010100010B504462046FFF7C1FF10BD10B50446C9
:101020002012FFF7BBFFE0B2FFF7B8FF10BD7CB5A1
:101030000546EF208DF8000001208DF80100D04812
:101040000068000E8DF80200CD480068000C8DF895
:101050000300CB480088000A8DF80400C8480078D7
:101060008DF8050007208DF8060000208DF8070098
:10107000C449088012E0012001F05FFBC1480088EC
:1010800000F4004050B10020BE4908806946BE48C7
:1010900003F022FB04460CB120467CBD681E80B2E2
:1010A000051EE8D100BFF8E770B5FFF782FFFFF734
:1010B00088FF0120FFF79CFF0320FFF79FFF01201F
:1010C000FFF7A6FF05263046FFF7A8FF4FF4FA60AA
:1010D000FFF7ADFF05460DB16C7A00E0FF24204616
:1010E00070BD2DE9F0410546FFF763FFFFF769FF8B
:1010F0000120FFF77DFF0420FFF780FF0220FFF7AC
:1011000087FF2846FFF74AFFEF1D3846FFF786FFA7
:101110004FF4FA60FFF78BFF06460EB1747A00E0D9
:10112000FF242046BDE8F08170B5FFF742FFFFF7CE
:1011300048FF0120FFF75CFF0320FFF75FFF03205C
:10114000FFF766FF07263046FFF768FF4FF4FA60A7
:10115000FFF76DFF05460DB16C7A00E0FF242046D5
:1011600070BD2DE9F04781460D4616461F46FFF734
:1011700020FFFFF726FF0120FFF73AFF0820FFF7C7
:101180003DFF0420FFF744FF4846FFF707FF281202
:10119000FFF704FFE8B2FFF701FF3012FFF7FEFE92
:1011A000F0B2FFF7FBFE09F10D0000EB2520E9B2DC
:1011B000084400EB2620F1B200EB010A5046FFF78D
:1011C0002DFF4FF4FA60FFF732FF044664B194F844
:1011D0000980E07AA17A00EB01203880607B217BD6
:1011E00000EB0120788001E04FF0FF084046BDE8A9
:1011F000F08770B5FFF7DDFEFFF7E3FE0120FFF794
:10120000F7FE0320FFF7FAFE0520FFF701FF09268E
:101210003046FFF703FF4FF4FA60FFF708FF05467B
:101220000DB16C7A00E0FF24204670BD2DE9F0413D
:1012300006460C46FFF7BDFEFFF7C3FE0120FFF791
:10124000D7FE0620FFF7DAFE0620FFF7E1FE304664
:10125000FFF7A4FE2012FFF7A1FEE0B2FFF79EFE0B
:1012600006F10D0000EB2420E1B200EB010840463E
:10127000FFF7D4FE4FF4FA60FFF7D9FE07460FB12F
:101280007D7A00E0FF252846BDE8F0812DE9F04198
:1012900004460D46FFF78DFEFFF793FE0120FFF792
:1012A000A7FE0720FFF7AAFE0C20FFF7B1FE2012D1
:1012B000FFF774FEE0B2FFF771FE2812FFF76EFE33
:1012C000E8B2FFF76BFE142000EB2420E1B20844E3
:1012D00000EB2520E9B200EB01084046FFF79EFE37
:1012E0004FF4FA60FFF7A3FE07460FB17E7A00E0E5
:1012F000FF263046BDE8F08170B5FFF75AFEFFF7D4
:1013000060FE0120FFF774FE0320FFF777FE0D203B
:10131000FFF77EFE11263046FFF780FE4FF4FA609D
:10132000FFF785FE05460DB16C7A00E0FF242046EC
:1013300070BD0146212920D2DFE801F011131517F5
:10134000191B1D6E707274768C8C8C8C787A8C8CD8
:101350008C7C8C8C7E808284868C8C888A000BA00E
:101360007AE00FA078E013A076E017A074E01BA04D
:1013700072E01FA070E023A06EE06BE0004C004024
:10138000F0020020EC020020480300202020202052
:101390002020204F4B202020202020200000000073
:1013A00020CAFDBEDDB0FCBDD3CAD5B4EDCEF3205E
:1013B00000000000B4ABB8D0C6F7C9CFC3BBD3D0D0
:1013C000CAD6D6B800000000C2BCC8EBD6B8CEC69C
:1013D000CDBCCFF1CAA7B0DC0000000020D6B8CE4B
:1013E000C6CCABB8C9BBF2CCABB5AD200000000099
:1013F00020D6B8CEC6CCABCAAABBF2CCABBAFD20C5
:10140000000000002020D6B8CEC6CDBCCFF1CCABBA
:10141000C2D2202000000000C2A01DE0C6A01BE038
:10142000CAA019E0CEA017E0D2A000BFD6A013E05A
:10143000DAA011E0DEA00FE0E2A00DE0E6A00BE0F4
:10144000EAA009E0EEA007E0F2A005E0F6A003E0C4
:10145000FAA001E0FEA000BF00BF70472DE9F047F1
:1014600006460D46FFF7A5FDFFF7ABFD0120FFF790
:10147000BFFD0520FFF7C2FD0E20FFF7C9FD304676
:10148000FFF78CFD2846FFF789FD701900F114085D
:101490004046FFF7C3FD4FF4FA60FFF7C8FD07466B
:1014A0000FB17C7A00E0FF241CB9EEA002F094FF9B
:1014B00007E02046FFF73DFF81464946EEA002F0D7
:1014C0008BFF2046BDE8F0872DE9F0410546FFF788
:1014D00070FDFFF776FD0120FFF78AFD0320FFF77F
:1014E0008DFD0F20FFF794FD13273846FFF796FD7B
:1014F0004FF47A70FFF79BFD0446BCB1667AE07B3F
:10150000A17B00EB01202880607CA870A07C0006F5
:10151000E17C00EB0140217D00EB0120617D08446E
:101520006860E07D2872607E687200E0FF26A6B9E0
:101530002988D3A002F050FFA978D7A002F04CFF71
:10154000D9A0696802F048FF687A4FF4165200FB90
:1015500002F1D8A002F040FF07E03046FFF7E9FEB5
:1015600080464146C4A002F037FF3046BDE8F08116
:101570002DE9F0410446FFF71CFDFFF722FD012095
:10158000FFF736FD0720FFF739FD1520FFF740FD77
:10159000200EFFF703FDC4F30740FFF7FFFCC4F381
:1015A0000720FFF7FBFCE0B2FFF7F8FC1D2000EB83
:1015B0001460C4F307410844C4F307210844E1B2AE
:1015C00047183846FFF72AFDBD4804604FF4FA601B
:1015D000FFF72DFD06460EB1757A00E0FF25B848ED
:1015E00004601DB9B7A002F0F7FE07E02846FFF738
:1015F000A0FE80464146A0A002F0EEFE2846BDE8CF
:10160000F0812DE9F04781460E46FFF7D2FCFFF747
:10161000D8FC0120FFF7ECFC2420FFF7EFFC18209A
:10162000FFF7F6FC4846FFF7B9FC002407E0305D01
:10163000FFF7B4FC305D384487B2601CC4B2202C84
:10164000F5DB09F13D00384487B23846FFF7E6FC88
:101650004FF4FA60FFF7EBFC054615B195F80980E9
:1016600001E04FF0FF084046BDE8F0872DE9F04764
:1016700007468846FFF79DFCFFF7A3FC0120FFF714
:10168000B7FC0420FFF7BAFC1920FFF7C1FC38466D
:10169000FFF784FC07F11E094846FFF7BFFC4FF433
:1016A000FA60FFF7C4FC064666B1757A002406E0CE
:1016B00004F10A00305C08F80400601CC4B2202C5D
:1016C000F6DB00E0FF252846BDE8F0872DE9F0476E
:1016D00081460D4616461F46FFF76BFCFFF771FC6F
:1016E0000120FFF785FC0820FFF788FC1B20FFF78F
:1016F0008FFC4846FFF752FC2812FFF74FFCE8B278
:10170000FFF74CFC3012FFF749FCF0B2FFF746FC44
:1017100009F1240000EB2520E9B2084400EB262063
:10172000F1B2D9E020D6B8CEC6CCD8D5F7B5E3CC47
:10173000ABC9D920000000002020D6B8CEC6B2BB6D
:10174000C6A5C5E4202020200000000020C3BBD394
:10175000D0CBD1CBF7B5BDD6B8CEC62000000000A7
:10176000202020CCD8D5F7BACFB2A2CAA7B0DC20AF
:1017700000000000B5D8D6B7D0F2BAC5B3ACB3F606
:10178000B7B6CEA7000000002020C9BEB3FDC4A399
:10179000B0E5CAA7B0DC20200000000020C7E5BFEC
:1017A000D5D6B8CEC6BFE2CAA7B0DC200000000084
:1017B000BBBAB3E5C7F8C4DACEDED3D0D0A7CDBC70
:1017C0000000000020B6C1D0B4464C415348B3F6E7
:1017D000B4ED202000000000202020CEB4B6A8D216
:1017E000E5B4EDCEF3202020000000002020CEDE66
:1017F000D0A7BCC4B4E6C6F7BAC5202000000000DC
:1018000020BCC4B4E6C6F7C4DAC8DDB4EDCEF3201C
:101810000000000020BCC7CAC2B1BED2B3C2EBB444
:10182000EDCEF3200000000020202020D6B8CEC648
:10183000BFE2C2FA2020202000000000202020204B
:10184000B5D8D6B7B4EDCEF320202020000000009C
:1018500020B7B5BBD8C8B7C8CFC2EBD3D0CEF32022
:10186000000000000D0AC9E8D6C3B2CECAFDB3C954
:10187000B9A6A3A1000000000D0A25730000000016
:101880000D0AC4A3BFE9D7EEB4F3D6B8CEC6C8DDFF
:10189000C1BF3D25640000000D0AB6D4B1C8B5C86B
:1018A000BCB63D25640000000D0AB5D8D6B73D256D
:1018B000780000000D0AB2A8CCD8C2CA3D25640049
:1018C000F00200200D0AC9E8D6C3B5D8D6B7B3C90F
:1018D000B9A6A3A10000000000EB010A5046FFF7E3
:1018E0009DFB4FF4FA60FFF7A2FB044664B194F845
:1018F0000980E07AA17A00EB01203880607B217BAF
:1019000000EB0120788001E04FF0FF084046BDE881
:10191000F0872DE9F0410646FFF74BFBFFF751FB3F
:101920000120FFF765FB0320FFF768FB1D20FFF791
:101930006FFB21273846FFF771FB4FF4FA60FFF782
:1019400076FB044634B1657AE07AA17A00EB012097
:10195000308000E0FF253DB9E07AA27A00EB022159
:101960005FA002F039FD08E02846FFF7E2FC804660
:101970004146AFF2FC0002F02FFD2846BDE8F081A1
:1019800010B50446FFF715FBFFF71BFB0120FFF71F
:1019900005FB0020FFF702FB0020FFF7FFFAC8203D
:1019A00000F0CBFE5348008800F4004008B35248D2
:1019B0000078EF281AD150484078012816D14E48B7
:1019C0008079072812D14C48807800064A49C978A6
:1019D00000EB01404849097900EB0120464949796B
:1019E0000844206000204349088010BD0020414980
:1019F00008800120F9E7704708B50121042001F0B3
:101A0000F5FA4020ADF8000028208DF803000320EF
:101A10008DF802006946394801F02CF808BD38B548
:101A2000FFF742FB0446002C59D10120FFF759FB78
:101A30000446002C53D16B46632200210120FFF79E
:101A400045FE0446002C45D1FEF7EFFF00202C494F
:101A500008602C49C1F884014FF4FA7000F06DFE63
:101A600001202949086000202849086028480168A9
:101A700028480078401C814201DD012000E0002060
:101A800025490A68254909781E318A4201DD01216C
:101A900000E00021084318B10020214908601EE041
:101AA0001B4801681F480078401C814201DD01206D
:101AB00000E0002018490A681B4909781E318A4253
:101AC00001DD012100E00021084340B10020174959
:101AD000086004E0FEF7A9FF01200949086038BD4D
:101AE0000D0AD3D0D0A7D6B8CEC6B8F6CAFD3D25CC
:101AF00064000000EC0200204803002000080140C0
:101B0000A001214200802142848121422000002046
:101B1000140000200E030020180000200F030020F6
:101B200024000020110300201203002028000020C0
:101B300008B50121042001F059FA1020ADF8000089
:101B40008DF8030003208DF802006946254800F057
:101B500091FF1021234801F03CF808BD10B5012089
:101B600021490860C82000F0E8FD00201F49C1F8A5
:101B7000900110BD10B51E4800681E4909788842C2
:101B80000BD11D4800681D490978884205D11C48C1
:101B9000006810B1FFF7E2FF22E01548006819491C
:101BA000097888420BD1144800681749097888429F
:101BB00005D11648006810B1FFF7D0FF10E00C48BF
:101BC00000681349097888420AD10B480068114916
:101BD0000978884204D11048006808B1FFF7BEFFB9
:101BE00010BD000000080140900121420000214288
:101BF000140000200A030020180000200B0300201E
:101C0000200000200E0300200F03002024000020ED
:101C100011030020120300202800002000BF5249B9
:101C2000098801F040010029F9D04F49091D0880B9
:101C3000704730B502460B46002405E012F8010B50
:101C4000FFF7ECFF601CC4B29C42F7DB30BD10B55F
:101C500086B004460121042001F0C8F9012148049E
:101C600001F0D1F90420ADF8140003208DF816001E
:101C700018208DF8170005A93C4800F0FBFE08204D
:101C8000ADF8140004208DF8170005A9374800F0BE
:101C9000F1FE4FF4A06001F011FC26208DF8000049
:101CA00000208DF8010002208DF8020001208DF83F
:101CB0000300684601F007FC01940020ADF808001D
:101CC000ADF80A00ADF80C00ADF810000C20ADF82E
:101CD0000E0001A9244801F030FA012240F22551FA
:101CE000214801F0C2FA01211F4801F0B2FA41F681
:101CF0001F416320FEF733FD00201D4908800021AD
:101D00001C4802F079F806B010BD10B540F225511C
:101D1000154801F08FFBF8B1134801F00BFBC4B27A
:101D20001348008800F40040B0B911480088C82862
:101D300013DA00210F4802F0F3FA0D48008818B9B1
:101D400001210C4802F058F8094801880088401C1D
:101D5000074A10800848445405E00548008840F4CC
:101D600000400349088010BD0044004000080140C5
:101D7000FC020020001400406806002010B586B068
:101D800004460121082001F031F90121880401F005
:101D90003AF918208DF817004FF48060ADF8140060
:101DA00003208DF8160005A9AA4800F063FE042060
:101DB0008DF817004002ADF8140003208DF81600CE
:101DC00005A9A44800F056FE01940020ADF81000CB
:101DD0000C20ADF80E000020ADF80C00ADF80A00A4
:101DE000ADF8080001A99C4801F0A7F901219A4823
:101DF00001F02FFA012240F22551974801F035FAFF
:101E00004FF4A06001F05AFB27208DF8000001205C
:101E10008DF8030003208DF801008DF8020068465C
:101E200001F051FB06B010BD10B540F225518A48B3
:101E300001F000FB00283CD040F22551864801F01B
:101E4000F9FA10B3844801F075FAC4B283480088E7
:101E500000F40040C8B98148008800F4804060B1B7
:101E6000232C03D000207D49088021E07B48008896
:101E700040F40040794908801AE0212C06D17748C7
:101E8000008840F480407549088011E0734800885C
:101E9000C0F30D0072490C5470480088401C6F4913
:101EA000088008460088B0F5167F01DB0020088016
:101EB00000BF10BD6948008800F40040002877D0BA
:101EC00066480088674908700020674908700CE080
:101ED000634865490978405C6449634A12788854CC
:101EE00061480078401C604908705F4800785D498F
:101EF00009788842ECDB0020584908805B488079EB
:101F000030385B49087008460078012806D002285E
:101F100029D003284DD0042824D16FE053484078BD
:101F2000303852490978303901EB810100EB41002A
:101F3000504908704D48C07830384C49897830395C
:101F400001EB810100EB41004B49087047484079A3
:101F5000303846490979303901EB810100EB410005
:101F6000464908706FE04148407830383F49097869
:101F7000303901EB810100EB4100414908703B48D9
:101F8000C078303839498978303901EB810100EB6C
:101F900041003C4908703548407930383349097967
:101FA000303901EB810100EB4100374908704AE00C
:101FB0004AE02E48407830382C490978303901EB16
:101FC000810100EB4100314908702848C078303861
:101FD00026498978303901EB810100EB41002C4919
:101FE000087022484079303820490979303901EBAE
:101FF000810100EB41002749087024E01B4840782C
:1020000030381A490978303901EB810100EB410081
:10201000214908601548C07830381449897830392A
:1020200001EB810100EB41001C4908600F48407939
:1020300030380E490979303901EB810100EB41005C
:102040001749086000BF00BF084800210160818077
:1020500081717047000C01400048004000030020DF
:1020600030070020FE0200200903002002030020A8
:102070000D0300200A0300200B0300200C030020A6
:102080000E0300200F030020100300201103002086
:102090001203002013030020140000201800002069
:1020A0001C00002010B586B004460121080500F090
:1020B000AAFF0121102000F099FF0121202000F04B
:1020C00095FF4FF48050ADF8140003208DF81600F2
:1020D00018208DF8170005A94C4800F0CBFC04200F
:1020E000ADF814008DF8170005A9494800F0C2FCAE
:1020F00035208DF8000001208DF8010002208DF8B8
:10210000020001208DF80300684601F0DCF901941B
:102110000020ADF80800ADF80A00ADF80C00ADF8ED
:1021200010000C20ADF80E0001A93A4801F005F8A6
:10213000012240F22551374801F097F80121354836
:1021400001F087F806B010BD10B504460BE000BFE3
:102150004021304801F058F90028F9D014F8011B4B
:102160002C4801F0E3F820780028F0D110BD10B51C
:10217000044600F07BF82046FFF7E6FF26A0FFF7B5
:10218000E3FF10BD2DE9F04180460D4616461F467F
:10219000002414E04046FFF7EAFF002404E038463C
:1021A00000F0CBFA601CC4B2142CF8DB284600F017
:1021B00051F910B10120BDE8F081601CC4B2B442F5
:1021C000E8DB0020F7E710B5044600F04FF82046A2
:1021D000FFF7BAFF10BD2DE9F04180460C461546C9
:1021E0001E4600270EE04046FFF7EDFFB0B200F0BC
:1021F000A4FA204600F02EF910B10120BDE8F081CC
:10220000781CC7B2AF42EEDB0020F7E700100140B8
:1022100000140140005000400D0A000010B50024D9
:1022200040F22551F24801F005F990B1F04801F073
:1022300081F8C4B2EF48F04909784454EE48007878
:10224000401CED49087008460078642801DD002034
:1022500008700821E64801F0D7F830B10821E448B9
:1022600001F0DFF8E24801F065F810BD002004E05D
:102270000021E04A1154411C88B26428F8DB002197
:10228000DD4A1170704738B505461A208DF80000F8
:1022900000208DF8010032230322D8A1D8A0FFF737
:1022A00071FF044614B96FF0050038BD32230322D4
:1022B000D2A1D6A0FFF766FF044614B96FF006005E
:1022C000F3E732230322D5A1D5480068FFF75AFF70
:1022D000044614B96FF00700E7E72846FFF734FF1C
:1022E0004FF4AF730122C5A16846FFF774FF04469F
:1022F00014B96FF00800D8E70120D6E710B53223F3
:102300000322BEA1C7A0FFF73DFF04460CB9002081
:1023100010BD4FF47A7000F010FA0120F8E72DE9B3
:10232000F04106460025FFF7A1FF42E0BEA0FFF7FF
:102330001EFF002504E0642000F0FFF9681CC5B210
:10234000142DF8DB00242CE0AA48005D2B2826D1B0
:10235000A849601C085C432821D1A01C085C5228B5
:102360001DD1E01C085C452819D1201D085C4728B8
:1023700015D1601D085C3A2811D1E01D085C302899
:102380000DD104F10900085C312804D004F10900E2
:10239000085C352803D101250120BDE8F081601CCF
:1023A000C4B2642CD0DB781CC7B2B74201DD002078
:1023B000F3E7002DBAD00020EFE770B505463223D1
:1023C00003228EA197A0FFF7DDFE044614B94FF05B
:1023D000FF3070BD3223022296A198A0FFF7D2FEF3
:1023E000044614B96FF00100F3E70320FFF797FFED
:1023F000044614B96FF00200EBE72846FFF743FFED
:102400000446012C02D06FF01500E2E70120E0E75E
:1024100010B53223032279A182A0FFF7B3FE044650
:1024200014B94FF0FF3010BD0320FFF778FF0446CA
:1024300014B96FF00200F6E7322302226FA182483E
:102440000068FFF79FFE044614B96FF00300EAE747
:102450000120E8E710B504462146664802F03CF941
:1024600008B1012010BD0020FCE770B53223032223
:1024700062A176A0FFF786FE054615B96FF014003D
:1024800070BD002403E0642000F057F9641C142C94
:10249000F9DB70A0FFF7DEFF10B96FF01500EFE772
:1024A0000120EDE738B505461A208DF80000002020
:1024B0008DF801003223032258A169480068FFF714
:1024C00061FE044614B96FF0070038BD2846FFF7D7
:1024D0003BFE4FF4AF73012262A16846FFF77BFE1B
:1024E000044614B96FF00800EFE70120EDE770B57E
:1024F00005463223032241A14AA0FFF743FE0446CA
:1025000014B94FF0FF3070BD322302223BA13CA032
:10251000FFF738FE044614B96FF02400F3E73223C6
:10252000022236A151A0FFF72DFE044614B96FF028
:102530002600E8E73223022230A151A0FFF722FE55
:10254000044614B96FF02500DDE72846FFF7AAFF1F
:102550000446012C00D1D6E76FF02700D3E7401CDA
:10256000704710B54A4800684A490978884210D136
:1025700049480168494800780F30814209D14848EC
:10258000006830B14748FFF7B2FF002044490860B7
:102590002CE03F48006844490978884210D13E4801
:1025A0000168424800780F30814209D140480068F4
:1025B00030B13C48FFF79BFF00203D49086015E023
:1025C000334800683B49097888420FD13248016896
:1025D000394800780F30814208D13848006828B166
:1025E0003048FFF784FF00203449086010BD000028
:1025F00000500040E00B0020200300204F4B000063
:1026000041542B434D47463D3100000041542B437C
:102610005343533D2247534D220000003E0000002B
:10262000180300204154000041542B435245473FBA
:1026300000000000524541445900000041542B4322
:1026400050494E3F000000001403002041542B4429
:102650004C5354002243414C4C222C3100000000CA
:102660001C0300202B434D475300000041542B43D3
:10267000534D503D31372C3136372C312C3800003A
:1026800041542B435343533D2255435332220000C0
:10269000140000200A030020180000200B03002073
:1026A00020000020B46300080E0300200F03002068
:1026B0002400002011030020120300202800002025
:1026C00010B56FF0040000F048FF2E4800682E4956
:1026D000B0FBF1F02D4908700846007800EB40018E
:1026E000C1EBC0104FF6FF7101EAC0002849088015
:1026F00010BD0146254A12784A434FF0E0235A6143
:1027000000229A611A46126942F001021A6100BF62
:102710004FF0E022106900F001021AB100F480329B
:10272000002AF5D04FF0E022126922F001024FF0AA
:10273000E0231A6100229A6170470146144A128808
:102740004A434FF0E0235A6100229A611A46126907
:1027500042F001021A6100BF4FF0E022106900F060
:1027600001021AB100F48032002AF5D04FF0E022C5
:10277000126922F001024FF0E0231A6100229A61EF
:10278000704700000000002000127A0022030020A1
:102790002403002000BF704700BF6E4A128802F079
:1027A0004002002AF9D0C2B26A4B1B1D1A80704742
:1027B00010B586B00446012144F2040000F016FC76
:1027C0004FF40070ADF8140003208DF816001820A7
:1027D0008DF8170005A9604800F04CF94FF48060AF
:1027E000ADF8140004208DF8170005A95A4800F030
:1027F00041F925208DF8000001208DF801008DF8A9
:1028000002008DF80300684600F05DFE0194002090
:10281000ADF80800ADF80A00ADF80C00ADF81000F6
:102820000C20ADF80E0001A94A4800F086FC0122F8
:1028300040F22551474800F018FD0121454800F0BD
:1028400008FD06B010BD10B540F22551414800F01A
:10285000F1FD10B33F4800F06DFDC4B23F48008861
:1028600000F40040C8B93D48008800F4804060B1E1
:102870000A2C03D000203949088020E0374800881E
:1028800040F400403549088019E00D2C06D133484A
:10289000008840F480403149088010E02F480088CB
:1028A000C0F30D002E490C542C480088401C2B49C5
:1028B000088008460088C72801DD0020088010BD78
:1028C0002648008800F40040002842D023480078C1
:1028D0002449087000202449087015E02048224946
:1028E0000978405CB3280AD11D481F490978405C2B
:1028F000B32804D11C480078401C1C4908701A48B1
:102900000078401C18490870174800781549097864
:102910008842E3DB00201449087011E01048134995
:102920000978405C1249104A127888540E480078A1
:10293000401C0D4908700D480078401C0B49087078
:102940000A480078074909788842E7DB00200349F4
:102950000880704700380140000801403003002023
:10296000340D002028030020290300202A03002022
:102970006C0C00200948804709480047FEE7FEE745
:10298000FEE7FEE7FEE7FEE7FEE7FEE7FEE7FEE71F
:1029900004480549054A064B704700000304000837
:1029A00031010008600E002060140020601000203B
:1029B0006010002010B50446CC48844208D10121A3
:1029C000042000F02DFB0021042000F029FB46E04C
:1029D000C748844208D10121082000F021FB0021D2
:1029E000082000F01DFB3AE0C248844208D10121D2
:1029F000102000F015FB0021102000F011FB2EE04C
:102A0000BD48844208D10121202000F009FB0021AB
:102A1000202000F005FB22E0B848844208D10121C3
:102A2000402000F0FDFA0021402000F0F9FA16E005
:102A3000B348844208D10121802000F0F1FA00213E
:102A4000802000F0EDFA0AE0AE48844207D101216F
:102A5000801500F0E5FA0021A01500F0E1FA10BDA4
:102A600010B50121084600F0DBFA0021012000F03A
:102A7000D7FA10BD2DE9F0410246002500260020BE
:102A800000230024002791F803C00CF00F0591F8F3
:102A900003C00CF0100CBCF1000F03D091F802C081
:102AA0004CEA050591F800C0BCF1000F31D0146864
:102AB00000202BE04FF0010C0CFA00F3B1F800C03D
:102AC0000CEA03069E4220D183004FF00F0C0CFA53
:102AD00003F7BC4305FA03FC4CEA040491F803C075
:102AE000BCF1280F06D14FF0010C0CFA00FCC2F823
:102AF00014C00AE091F803C0BCF1480F05D14FF0B3
:102B0000010C0CFA00FCC2F810C0401C0828D1D3FC
:102B10001460B1F800C0BCF1FF0F34DD5468002030
:102B20002EE000F1080C4FF0010808FA0CF3B1F8A0
:102B300000C00CEA03069E4221D183004FF00F0C27
:102B40000CFA03F7BC4305FA03FC4CEA040491F8C1
:102B500003C0BCF1280F05D100F1080C08FA0CF8ED
:102B6000C2F8148091F803C0BCF1480F07D100F1FE
:102B7000080C4FF0010808FA0CF8C2F81080401C4D
:102B80000828CED35460BDE8F0814FF6FF71018074
:102B9000022181700421C1707047024600209368B1
:102BA0000B400BB1012000E000207047014688680F
:102BB00080B2704702460020D3680B400BB1012061
:102BC00000E0002070470146C86880B2704701618C
:102BD0007047416170470AB1016100E0416170478F
:102BE000C16070474FF480320A4382618161826123
:102BF00082698269704702460020434B18684FF68D
:102C00008073184040EA021008433F4B1860704739
:102C10003E49C8617047F0B50A46002300240021F0
:102C2000002500F00046B6F1004F02D1364EF169A2
:102C300001E0354E7168C0F3034583B200F44016DD
:102C4000B6F5401F08D121F070612F4E766826F04E
:102C500070662D4F7E6012E000F48016B6F5801F7E
:102C600006D1032606FA05F4A14341F0706106E09F
:102C7000460D360103FA06F6B14341F0706122B108
:102C8000460D360103FA06F6314300F00046B6F170
:102C9000004F02D11C4EF16101E01B4E7160F0BD8E
:102CA00030B500228B071C0F0F2303FA04F2164BDA
:102CB00008338C1053F824309343134C08348D1090
:102CC00044F8253023468C1053F824308C07240F09
:102CD00000FA04F423430C4C08348D1044F82530DA
:102CE00030BD0A49DC31086070470000000801402F
:102CF000000C014000100140001401400018014088
:102D0000001C014000200140000001400000204262
:102D1000DF48006840F00100DD490860084640686F
:102D2000DC490840DA49486008460068DA4908404A
:102D3000D74908600846006820F4802008600846EB
:102D4000406820F4FE0048604FF41F008860704720
:102D5000CF49096821F48031CD4A116011460968D4
:102D600021F480211160B0F5803F03D0B0F5802FB1
:102D70000ED106E0C649096841F48031C44A1160A9
:102D800007E0C349096841F4A021C14A116000E08D
:102D900000BF00BF704710B501460022002300208D
:102DA0004A11012A02D1BA4C236806E0022A02D154
:102DB000B74C236A01E0B64C636A01F01F0201249C
:102DC00094401C400CB1012000E0002010BD38B53B
:102DD000002000900024002500BF3120FFF7DBFF1A
:102DE00005460098401C00900098B0F5A06F01D0F7
:102DF000002DF2D03120FFF7CEFF08B1012400E012
:102E00000024204638BD01460020A14A106820F069
:102E1000F80040EAC10010607047A04908607047A0
:102E2000024600209A4B586820F47C1042EA0103C5
:102E30001843974B58607047984908667047014699
:102E40000020934A506820F0030008435060704708
:102E50008F48406800F00C007047014600208C4A03
:102E6000506820F0F0000843506070470146002091
:102E7000874A506820F4E06008435060704701467C
:102E80000020834A506820F4605040EAC10050603E
:102E9000704729B17E4A527A02437D4B5A7204E050
:102EA0007B4A527A82437A4B5A7270477B49D831B7
:102EB0000860704701460020754A506820F4404081
:102EC0000843506070470021714A20321170704AE7
:102ED00082F82010012802D004280AD104E0012140
:102EE0006B4A2032117005E00521694A20321170C9
:102EF00000E000BF00BF704769490860704764493F
:102F0000096A0143624A11627047654944390860A1
:102F1000704730B500210022002400235C4D6D680D
:102F200005F00C0121B1042905D0082923D105E0C1
:102F30005C4D056022E05B4D05601FE0544D6D68FF
:102F400005F47012524D6D6805F48034022505EBCE
:102F500092421CB9544D554305600BE04C4D6D68D1
:102F600005F400351DB1504D5543056002E04D4D4F
:102F70005543056002E04B4D056000BF00BF444D66
:102F80006D6805F0F0010909484D6B5C0568DD408E
:102F900045603F4D6D6805F4E061090A434D6B5C87
:102FA0004568DD4085603A4D6D6805F46051C90A99
:102FB0003E4D6B5C4568DD40C560354D6D6805F480
:102FC0004041890B3A4D6B5CC568B5FBF3F5056173
:102FD00030BD29B12E4A526902432D4B5A6104E09B
:102FE0002B4A526982432A4B5A61704729B1284AB9
:102FF00092690243264B9A6104E0254A9269824312
:10300000234B9A61704729B1214AD2690243204B70
:10301000DA6104E01E4AD26982431D4BDA617047CF
:1030200029B11B4AD2680243194BDA6004E0184AFE
:10303000D2688243164BDA60704729B1144A12698C
:103040000243134B1A6104E0114A12698243104B88
:103050001A61704712494039086070470F49C864C7
:1030600070470B49C87170470948406A40F080704A
:1030700007494862704701460020054A92680A40A5
:103080000AB1012000E000207047014988727047B2
:10309000001002400000FFF8FFFFF6FE0000424271
:1030A0008004424200127A0000093D0032030020F1
:1030B0004203002010B50446FB48844209D1012197
:1030C0008803FFF7ADFF00214FF48040FFF7A8FF12
:1030D00032E0F648844209D101214804FFF7ADFFF0
:1030E00000214FF40030FFF7A8FF25E0F0488442AC
:1030F00009D101218804FFF7A0FF00214FF48020AF
:10310000FFF79BFF18E0EB48844209D10121C80476
:10311000FFF793FF00214FF40020FFF78EFF0BE035
:10312000E548844208D101210805FFF786FF002108
:103130004FF48010FFF781FF10BD2DE9F04786B0F6
:1031400005460E460024A24600BFA1460027B089CE
:1031500000B100BF2F462C8A4CF6FF700440F08867
:1031600004432C82AC894EF6F3100440B0883189B8
:103170000843718908430443AC81AC8A4FF6FF4091
:103180000440B0890443AC8201A8FFF7C2FEC648E0
:10319000874202D1DDF810A001E0DDF80CA0A8897B
:1031A00000F4004040B10AEBCA0000EB0A1031689D
:1031B0004900B0FBF1F807E00AEBCA0000EB0A1087
:1031C00031688900B0FBF1F86420B8FBF0F004012D
:1031D0002009642101FB1089A88900F4004040B156
:1031E000322000EBC900B0FBF1F000F0070004430F
:1031F00008E0322000EB09106421B0FBF1F000F090
:103200000F0004432C8106B0BDE8F0874FF416513F
:10321000016000218180C18001810C214181002158
:103220008181704710B502460020108A4FF2FF03DB
:1032300018400B884C8823438C882343CC88234335
:103240001843108210BD0021018041808180C1801F
:10325000704721B1828942F40052828104E0828960
:103260004DF6FF731A4082817047F0B50346002483
:1032700000260025002040F66A17B94200D100BFA1
:103280001846C1F3421401F01F06012707FA06F59C
:10329000012C01D10C3004E0022C01D1103000E0EF
:1032A00014301AB107682F43076002E00768AF4384
:1032B0000760F0BD1AB1838A0B43838202E0838AE0
:1032C0008B4383827047028A4FF6F0731A40028262
:1032D000028A0A430282704782894FF2FF731A40C2
:1032E000828182890A438281704721B1828942F0BA
:1032F0000202828104E082894FF6FD731A408281C6
:103300007047028A4FF6DF731A400282028A0A432C
:103310000282704721B1028A42F48042028204E0B4
:10332000028A4BF6FF731A4002827047C1F308020B
:103330008280704701468888C0F308007047818901
:1033400041F0010181817047028BD2B20283028B6E
:1033500042EA012202837047028B02F47F42028319
:10336000028B0A430283704721B1828A42F0200215
:10337000828204E0828A4FF6DF731A4082827047AD
:1033800021B1828A42F01002828204E0828A4FF6E2
:10339000EF731A408282704721B1828A42F008029C
:1033A000828204E0828A4FF6F7731A408282704765
:1033B00021B1828942F40042828103E08289C2F312
:1033C0000E028281704721B1828A42F400628282B9
:1033D00004E0828A4FF2FF731A4082827047828A29
:1033E0004FF6FB731A408282828A0A4382827047B8
:1033F00021B1828A42F00202828204E0828A4FF680
:10340000FD731A408282704702460020B1F5007FAA
:1034100000D100BF13880B400BB1012000E0002059
:10342000704701F40072B2F5007F00D100BFCA43BB
:103430000280704770B5024600240023002500205A
:1034400040F66A16B14200D100BFC1F3421501F047
:103450001F03012606FA03F3012D02D1968933409A
:1034600006E0022D02D1168A334001E0968A3340ED
:103470000C12012606FA04F41688344013B10CB17C
:10348000012000E0002070BD10B50022002340F6AE
:103490006A14A14200D100BF0A1201249440A3B2D1
:1034A000DC43048010BD00000038014000440040AF
:1034B00000480040004C00400050004031490143AA
:1034C000314A1160704770B5002100230F22C47883
:1034D00004B32D4C246804F4E064C4F5E064210ACC
:1034E000C1F10403CA40447804FA03F1847814401B
:1034F00021430901254C0678A155047804F01F05E5
:103500000124AC4005786D11AD0005F1E025C5F84A
:10351000004109E0047804F01F050124AC401C4D73
:103520000678761145F8264070BD1A4A0A400243D3
:10353000154B1B1F1A60704739B1134A121D1268D0
:103540000243114B1B1D1A6006E00F4A121D126840
:1035500082430D4B1B1D1A607047042808D14FF0A1
:10356000E021096941F004014FF0E022116107E018
:103570004FF0E021096921F004014FF0E0221161D0
:10358000704700000000FA050CED00E000E400E0E8
:1035900080E100E080FFFF1F10B50446FE48844232
:1035A00008D10121C014FFF73BFD0021E014FFF713
:1035B00037FDC4E0B4F1804F08D101210846FFF780
:1035C0003CFD00210120FFF738FDB8E0F3488442BC
:1035D00008D101210220FFF730FD00210220FFF772
:1035E0002CFDACE0EE48844208D101210420FFF715
:1035F00024FD00210420FFF720FDA0E0E9488442DB
:1036000008D101210820FFF718FD00210820FFF74D
:1036100014FD94E0E448844208D101211020FFF712
:103620000CFD00211020FFF708FD88E0DF488442F0
:1036300008D101212020FFF700FD00212020FFF705
:10364000FCFC7CE0DA48844208D101214014FFF7F9
:10365000E7FC00216014FFF7E3FC70E0D5488442EA
:1036600009D10121C804FFF7DBFC00214FF4002041
:10367000FFF7D6FC63E0D048844209D10121080558
:10368000FFF7CEFC00214FF48010FFF7C9FC56E095
:10369000CA48844209D101214805FFF7C1FC002135
:1036A0004FF40010FFF7BCFC49E0C548844208D144
:1036B00001214020FFF7C1FC00214020FFF7BDFCA5
:1036C0003DE0C048844208D101218020FFF7B5FCCD
:1036D00000218020FFF7B1FC31E0BB48844208D1D3
:1036E00001218015FFF7A9FC0021A015FFF7A5FC1B
:1036F00025E0B648844209D101210804FFF790FC77
:1037000000214FF48030FFF78BFC18E0B048844272
:1037100009D101214804FFF783FC00214FF4003058
:10372000FFF77EFC0BE0AB48844208D101218804FE
:10373000FFF776FC00214FF48020FFF771FC10BDED
:1037400000220288944B98420ED0994B98420BD09D
:10375000B0F1804F08D0914B984205D0904B9842E1
:1037600002D0904B984204D14FF68F731A404B8889
:103770001A438D4B984207D08C4B984204D04FF699
:10378000FF431A40CB881A4302808B8883850B88BD
:103790000385814B98420BD0854B984208D08B4BC8
:1037A000984205D08A4B984202D08A4B984201D168
:1037B0000B7A038601238382704770B500240022B0
:1037C0000023058C4FF6FE7635400584028C8388F5
:1037D000048B4FF68F752C40B51E2C400D882C4362
:1037E000751E2A400D892A434D882A436A4DA842F6
:1037F0000BD06F4DA84208D0744DA84205D0744D2F
:10380000A84202D0734DA84213D14FF6F7752A4053
:103810004D892A434FF6FB752A408D882A434FF67F
:10382000FF652B404FF6FF552B408D892B43CD89EB
:103830002B4383800483CD888586028470BD70B558
:10384000002400220023058C4FF6EF7635400584D6
:10385000028C8388048B48F6FF752C404FF6FF4599
:103860002C400D884FF6FF7606EA05252C434FF6CF
:10387000DF752A400D8906EA05152A434D8806EAB8
:1038800005152A43444DA84202D0494DA8421DD1F6
:103890004FF67F752A404D894FF6FF7606EA0515EB
:1038A0002A434FF6BF752A408D8806EA05152A433C
:1038B0004FF6FF352B404FF2FF752B408D8906EAFE
:1038C00085052B43CD8906EA85052B438380048338
:1038D000CD880587028470BD70B5002400220023C6
:1038E000058C4FF6FF6635400584028C8388848BF7
:1038F0004FF68F752C404FF6FC752C400D882C43ED
:103900004FF6FF552A400D894FF6FF7606EA05254A
:103910002A434D8806EA05252A431F4DA84202D0B6
:10392000234DA8421DD14FF2FF752A404D894FF615
:10393000FF7606EA05252A434FF6FF352A408D8893
:1039400006EA05252A434EF6FF752B404DF6FF7516
:103950002B408D8906EA05152B43CD8906EA05150E
:103960002B4383808483CD888587028470BD70B5A6
:10397000002200230024058C4EF6FF763540058496
:10398000038C8488828B48F6FF752A404FF6FF45EA
:103990002A400D8820E00000002C01400004004077
:1039A00000080040000C00400010004000140040DF
:1039B00000340140004C01400050014000540140DF
:1039C00000180040001C0040002000400040014062
:1039D00000440140004801404FF6FF7606EA052505
:1039E0002A434DF6FF752B400D8906EA05352B431A
:1039F0004D8806EA05352B43FA4DA84202D0FA4D10
:103A0000A84208D14BF6FF752C408D894FF6FF7602
:103A100006EA85152C4384808283CD88A0F8405027
:103A2000038470BD828B4FF2FF331A408283828BF6
:103A30004FF6FF7303EA01231A4382837047F0B500
:103A40000C461546002200210026078C4EF6FF7C0E
:103A500007EA0C070784828B018C4FF6FF7707EA91
:103A6000043640F6FF473A404FF6FF7707EA05274E
:103A70003A434FF6FF7707EA03373A43D94FB84244
:103A80000ED0D94FB8420BD0B0F1804F08D0D74FED
:103A9000B84205D0D64FB84202D0D64FB84206D170
:103AA0004DF6FF77394046F48057394305E047F635
:103AB000FF57394044F48057394382830184F0BD75
:103AC000828B4FF6F3731A408283828B0A43828380
:103AD0007047F0B50C461546002200210026078CE1
:103AE0004FF6FF6C07EA0C070784828B018C4FF6B8
:103AF000FF7707EA04264FF60C773A404FF6FF7738
:103B000007EA03172F433A43B64FB8420ED0B64FD9
:103B1000B8420BD0B0F1804F08D0B44FB84205D0B6
:103B2000B34FB84202D0B34FB84206D14FF6FF5759
:103B3000394046F48077394305E04FF2FF5739406A
:103B400044F48077394382830184F0BD028B4FF2C5
:103B5000FF331A400283028B4FF6FF7303EA0123FF
:103B60001A4302837047F0B50C4615460022002127
:103B70000026078C4FF6EF7C07EA0C070784028BC0
:103B8000018C4FF6FF7707EA041640F6FF473A40EC
:103B90004FF6FF7707EA03373A434FF6FF7707EA16
:103BA00005273A438F4FB8420ED08F4FB8420BD003
:103BB000B0F1804F08D08D4FB84205D08C4FB8423D
:103BC00002D08C4FB84206D14FF6DF77394046F02D
:103BD0001007394305E04FF65F77394044F010078E
:103BE000394302830184F0BD028B4FF6F3731A4010
:103BF0000283028B0A4302837047F0B50C461546D8
:103C000000220021068C4FF6FE773E400684028B90
:103C1000018C4FF60C7632407E1C06EA03162E43CA
:103C20003243704EB0420ED06F4EB0420BD0B0F166
:103C3000804F08D06D4EB04205D06D4EB04202D0DC
:103C40006C4EB04206D14FF6FD76314044F001068D
:103C5000314305E04FF6F576314044F0010631433B
:103C600002830184F0BD70B505460C465D4885426F
:103C70000ED05D4885420BD0B5F1804F08D05B482F
:103C8000854205D05A48854202D05A48854200D123
:103C900000E000BF208850B92389A28861882846A7
:103CA000FFF7ABFFE1882846FFF79EFF25E020885D
:103CB00004280AD12389A28861882846FFF753FF88
:103CC000E1882846FFF742FF17E0208808280AD13C
:103CD0002389A28861882846FFF7FBFEE1882846F1
:103CE000FFF7EEFE09E02389A28861882846FFF7E6
:103CF000A6FEE1882846FFF795FE70BD2DE9F0414C
:103D000005460C4600260127608808B9022600E017
:103D10000026A088012801D1022700E00127208881
:103D2000A0B92389A28861882846FFF766FFE18849
:103D30002846FFF759FF23893A4631462846FFF7C0
:103D400012FFE1882846FFF701FF13E02389A288CC
:103D500061882846FFF707FFE1882846FFF7F6FE4F
:103D600023893A4631462846FFF747FFE18828462F
:103D7000FFF73AFFBDE8F0810A884B881A438B8829
:103D80001A43CB881A430B891A434B891A438B89F0
:103D90001A43A0F8442070474FF6FF71818000213C
:103DA0000180C18041800172704700210180418003
:103DB0008180C180018141818181C1817047002161
:103DC00001804180012181800021C18001817047F3
:103DD0000021018041808180C180018141818181F8
:103DE00070470000002C01400034014000040040F6
:103DF00000080040000C004021B1028842F001029E
:103E0000028004E002884FF6FE731A400280704779
:103E100031B1B0F8442042F40042A0F8442005E05B
:103E2000B0F84420C2F30E02A0F8442070471AB143
:103E300083890B43838102E083898B4383817047AD
:103E40008182704741EA0203A0F8483070471AB1F6
:103E500083890B43838102E083898B43838170478D
:103E600001894FF6F8721140018170470A4600211E
:103E700001894FF68F73194011430181704730B5A6
:103E800004460D4629462046FFF7F0FF208940F002
:103E90000700208130BD2DE9F04104460D4616464D
:103EA0001F46602D06D13B46012231462046FFF7D2
:103EB0005AFE05E03B46012231462046FFF79DFEB3
:103EC00029462046FFF7D2FF208940F007002081D5
:103ED000BDE8F08130B50C4600210189C9B24FF62A
:103EE000FF7505EA0325154325432943018130BDAC
:103EF0002DE9F04105460E461746984600244346F4
:103F00003A4631462846FFF7E5FF2C894FF6F87010
:103F1000044044F007044FF68F70044044F07004EE
:103F20002C81BDE8F081F0B504460D4616461F46CB
:103F30003B46324629462046FFF7CCFF208940F415
:103F400080402081F0BD0185828270470A460021B1
:103F500001884FF68F731940114301807047F0B507
:103F60000C4615461E460021002200230189028BC3
:103F7000038C4FF6F877394021434FF6FC473A401F
:103F800040F201173A434FF6DD773B404FF6FF779B
:103F900007EA06172F433B43018102830384F0BDE8
:103FA0000A460021018B4FF68F731940114301839C
:103FB00070470A460021018B48F6FF7319404FF6FF
:103FC000FF7303EA02231943018370470A46002165
:103FD000818B4FF68F7319401143818370470A46D6
:103FE0000021818B48F6FF7319404FF6FF7303EAF7
:103FF000022319438183704721B1028842F0800275
:10400000028004E002884FF67F731A4002807047F6
:1040100021B1828842F00402828004E082884FF657
:10402000FB731A408280704721B1828842F00802F7
:10403000828004E082884FF6F7731A4082807047CE
:1040400021B1828842F00102828004E082884FF62A
:10405000FE731A40828070470A460021018B4FF69A
:10406000F77319401143018370470A460021018B01
:104070004FF2FF7319404FF6FF7303EA022319430F
:10408000018370470A460021818B4FF6F773194070
:104090001143818370470A460021818B4FF2FF73E1
:1040A00019404FF6FF7303EA0223194381837047D7
:1040B0000A460021018B4FF6FB731940114301831F
:1040C00070470A460021018B4FF6FF3319404FF627
:1040D000FF7303EA02231943018370470A46002154
:1040E000818B4FF6FB7319401143818370470A4659
:1040F0000021818B4FF6FF3319404FF6FF7303EA1F
:1041000002231943818370470A460021018B4FF631
:104110007F7319401143018370470A460021018BC8
:10412000C1F30E014FF6FF7303EA02231943018323
:1041300070470A460021818B4FF67F731940114367
:10414000818370470A460021818BC1F30E014FF62F
:10415000FF7303EA02231943818370470A46002153
:10416000018C4FF6FD7319401143018470470A46D4
:104170000021018C4FF6F7731940114301847047F9
:104180000A460021018C4FF6DF7319404FF6FF738A
:1041900003EA02131943018470470A460021018C87
:1041A0004FF67F7319404FF6FF7303EA021319436A
:1041B000018470470A460021018C4FF6FF531940D5
:1041C0004FF6FF7303EA02231943018470470A463E
:1041D0000021018C4FF2FF7319404FF6FF7303EA81
:1041E00002231943018470470A460021018C4DF6D1
:1041F000FF7319404FF6FF7303EA0233194301843A
:10420000704730B5002301248C40A3B2048C9C433A
:104210000484048C02FA01F5ADB22C43048430BD51
:1042200030B5002304248C40A3B2048C9C43048446
:10423000048C02FA01F5ADB22C43048430BD70B594
:104240000346002000241846183001258D40ACB2EA
:104250001D8CA5431D8409B1082909D100EB61001B
:10426000056825F0700505600568154305600EE0DA
:104270000D1FC5F34E052844056825F4E04505608B
:1042800005684FF6FF7606EA02263543056070BDE5
:1042900021B1028842F00202028004E002884FF657
:1042A000FD731A400280704721B1028842F0040277
:1042B000028004E002884FF6FB731A4002807047C8
:1042C00021B1828842F08002828004E082884FF629
:1042D0007F731A408280704702884FF6F7731A4046
:1042E000028002880A430280704782884FF68F73EB
:1042F0001A40828082880A438280704702894FF682
:10430000F8731A40028102890A43028170470289C8
:104310004FF67F731A40028102890A430281704777
:104320008184704781857047818670470187704717
:1043300081877047A0F84010704702884FF6FF430E
:104340001A40028002880A43028070470146888E24
:1043500070470146088F70470146888F70470146B5
:10436000B1F8400070470146888C70470146088DBF
:10437000704702460020138A0B400BB1012000E079
:1043800000207047CA430282704730B502460020C1
:1043900000230024158A05EA0103958905EA010432
:1043A00013B10CB1012000E0002030BDCA430282ED
:1043B000704770471CB50C46064B7B44694600901D
:1043C000204600F06AFA04460020694600F078FAB8
:1043D00020461CBD030500000FB4044910B503AA14
:1043E000029800F089FA10BC5DF814FB2C03002041
:1043F00070B50C460546012A05D02878800600D500
:10440000EA69002302E0012305E05B1C934202D22B
:10441000E05C0028F9D1A869E618C01AA861286AEA
:1044200018442862284600F08CF904E0D5E90121FF
:1044300014F8010B9047B442F8D3284600F097F9DE
:1044400070BD00002DE9F041064600241068752972
:10445000314616A510D000F09BF9002802DA404240
:1044600013A507E031688A0701D512A502E04907C4
:1044700004D511A5012401E000F093F900210A22DE
:1044800006F1240709E0B0FBF2FCB0FBF2F302FBFB
:104490001C00303078541846491C0028F3D12346BC
:1044A0002A463046BDE8F04100F084B90000000023
:1044B0002D0000002B00000020000000F0B40D468D
:1044C0000188090502D5214C7C4402E01F4C7C4444
:1044D0000E34002100F1240608E002F00F07120953
:1044E000E75D42EA03721B097754491C52EA03074D
:1044F000F3D102780023120704D5702D06D009B13C
:10450000022311342246F0BC00F054B901231034C8
:10451000F8E770B504460D462146106800F041F9F1
:10452000024629462046BDE870400023C6E7D21D5A
:1045300022F00703D3E90023C0E70368126843F0C1
:10454000200303600823C3610023B7E7B41D000004
:104550002DE9F05F894604464FF0000ADFF874B198
:10456000FB44C0F820A02046E1688847002874D0AA
:10457000252806D0D4E901219047206A401C2062FA
:10458000F1E700265F462046E16888472028054677
:1045900007DB312D05D2781910F8200C08B106433D
:1045A000F1E7B00701D526F00406C4F81CA00027E7
:1045B000C4F818A02A2D09D0284601F01FFA38B3F4
:1045C00004EB8708303DC8F8185019E059F8041B6F
:1045D000204604EB87029161E1688847012F054678
:1045E00018D1E069002820DA26F020061DE0D8F86E
:1045F000180000EB800005EB40003038C8F81800C8
:104600002046E1688847054601F0F8F90028EED118
:10461000012F0AD02E2D08D12046E16888477F1C43
:104620000546022F46F02006C4DBA069002803DA05
:10463000404246F00106A061F00701D026F01006C6
:104640006C2D0BD0682D09D04C2D39D06A2D35D06A
:10465000742D35D07A2D33D016E038E0E1682F463E
:1046600020468847B842054609D16C2F26D04FF422
:104670008060E168064320468847054604E06C2FC9
:104680001AD04FF4807006430DB3A5F141001928EC
:1046900002D8203546F400664A4629462046266060
:1046A0004E46FBF79FFD80B101280BD0F61D26F08A
:1046B000070000F1080956E74020E4E78020D8E72A
:1046C0000020D6E706F104094DE7284652E7206AA4
:1046D000BDE8F09F441D000030B505460B462A4654
:1046E00013F8014B12F8010B08B1A042F8D01CB12D
:1046F000002802D06D1CF1E7284630BD10B5431CE0
:1047000002E010F8011B71B18107FAD14FF00132BC
:1047100002C88C1A8C4314EAC211F9D0C01A0A06D6
:1047200003D0C01E10BDC01A10BD0A0401D0801EE7
:1047300010BD0902FCD0401E10BD70477047704785
:10474000704770B5044685690068C10601D53026FA
:1047500000E02026C00707D070BDD4E90121304613
:104760009047206A401C20626D1EF6D570BD70B562
:10477000044685690078C00707D170BDD4E90121DE
:1047800020209047206A401C20626D1EF6D570BD27
:1047900009684A0501D540B27047C905FCD500B289
:1047A000704709684A0501D5C0B27047C905FCD5F4
:1047B00080B270472DE9F0470D469946924604466F
:1047C00000F124080168880604D5E06921F0100191
:1047D000216000E00120A84201DD471B00E0002726
:1047E000A1697A1902EB0900081AA0612078C006B5
:1047F00002D42046FFF7A5FF002608E0D4E90121F6
:104800001AF806009047206A401C761C20624E452C
:10481000F4DB2078C0060AD52046FFF792FF06E0B9
:10482000D4E9012130209047206A401C2062381EC4
:10483000A7F10107F4DC07E0D4E9012118F805002D
:104840009047206A401C2062281EA5F10105F3DC78
:104850002046FFF78CFF2078000602D50220BDE835
:10486000F0870120FBE711680268006A530501D553
:1048700008700AE0D30501D5088006E0130603D5C9
:10488000C217C1E9000200E0086001207047000083
:1048900001694A1C02610878704700B58FB0CDE904
:1048A00001310021059105497944CDE903101146F4
:1048B0006846FFF74DFE0FB000BD0000E5FFFFFFAB
:1048C0000A6802F8010B0A60704710B5436913B11A
:1048D000AFF3008001E0FFF78BFD012010BD1278DF
:1048E00000F124010A7000224A700122EDE71168EC
:1048F0004FF0FF32E9E70000074B70B50D467B44EF
:10490000FFF7CBFF0446284600F046FB10B14FF0FE
:10491000FF3070BD204670BD97DEFFFF2DE9FF5FC1
:1049200015468A460446DFF8AC80F8440027D8E9EB
:1049300000103E46CDE9001010E03AF816106A4625
:1049400002A800F02DFB411C07D02178890603D571
:10495000E269391891420DD80744761C2078800608
:1049600002D5E069B84205DDAE42E6DB3AF8160052
:104970000028E2D1A069C01BA0612046FFF7E1FE3C
:10498000D8E90010CDE90010002017E03AF818101F
:104990006A4602A800F004FBB0F1FF3F81460BD04D
:1049A00000250DF1080B05E0D4E901211BF80500F5
:1049B00090476D1C4D45F7D308F10100B042804689
:1049C000E4DB206A384420622046FFF7D0FEBDE8D1
:1049D000FF9F00008E1900002DE9F0418046D21D96
:1049E00022F007020025D2E90002F52915A614D00D
:1049F000011E72F1000106DA0023D0EB030063EB25
:104A0000020211A608E0D8F800108B0701D50FA606
:104A100002E0490701D50EA601251146002408F140
:104A2000240704E000F04EF830323A55641C50EA96
:104A30000102F7D12B46324621464046BDE8F041FF
:104A4000FFF7B8BE000000002D0000002B000000A2
:104A50002000000030B4002100F1240408E002F03E
:104A60000705D208303542EA4372DB086554491C19
:104A700052EA0305F3D10468002310A2250707D5E5
:104A8000A40600D421B1C46901230DA2641EC4612F
:104A900030BCFFF78FBE10B5044621461068FFF703
:104AA00080FE02462046BDE810400023D2E7D21D1A
:104AB00022F00701D1E90023CCE70000000000004C
:104AC0003000000030B5B0F10A024FEA900E71F1EB
:104AD00000034EEA817EB0EB0E0061EB91014FEADC
:104AE000101E4EEA017E10EB0E0041EB11114FEA51
:104AF000102E4EEA016E10EB0E0041EB11214FEA31
:104B0000104E4EEA014E10EB0E0041EB11414018E1
:104B100041F100014FEAD00040EA41704FEAD10173
:104B200010EB80054FEA810444EA907444EB0104E1
:104B30006D1944EB0404521BA3414FF0000348BF1E
:104B40000A3200D530BD401C41F1000130BD704734
:104B50002DE9FF4F0C461E464FF0FF378BB0D2E9D0
:104B60000001DDF860800A908A46C1F30A5505B954
:104B70003D46002108464FF00000BAF1000F00F456
:104B8000400005DA00EB80004FF4400101EA5000DC
:104B90004FEA9059B9F1010F00DDB9460A9850EA81
:104BA0004A000ED044F61050A5F2FF3545432F14AD
:104BB000B8F1000F1ED07542291E1EDDC9F100029A
:104BC0001CE0B8F1010F4FF0000001D0302103E0EC
:104BD000F24305E02154401CB042FBDB304600228A
:104BE000002121540B99C1F80880C1E900200FB0C1
:104BF000BDE8F08FBD1B6D1CDEE74A4600DA694256
:104C000006A800F05FFA06AB93E8070003AB83E861
:104C1000070050460A9900F015FB8DE80700A0F543
:104C200000501F3800900398002D0ADD42F21F014A
:104C30004A460844002303A90390684600F07EFD1D
:104C400009E0A0F500504A461F38002303A903904D
:104C5000684600F088FD8DE807000004000C03D0D2
:104C60004FF0FF30410800E01046B8F1000F03D0CC
:104C70000022009215461EE0751E05D4FFF722FFA4
:104C8000303262556D1EF9D5B3460122084302D079
:104C900000227F1C04E02078302801D100227F1EF2
:104CA000002A099784D01DE0112D07DAFFF70AFFCB
:104CB000303262556D1C50EA0102F5D1084302D032
:104CC0000098C8B10EE00021681E05E0235C625C1C
:104CD00063542254401E491C8142F7DBAB46A81B9B
:104CE000401E0990002004F80B000B98099AC0F8A8
:104CF0000880C0E9002B7AE711264FF0000857E73B
:104D00002DE9F04F88460446D21D22F0070191B0EC
:104D1000D1E90001CDE90A0100F05CFE02460B98E2
:104D2000C00F01D02D2007E02068810701D52B207E
:104D300002E0202101EAC000032A099001D0072ADD
:104D400005DB03464146204600F07CF90BE1207864
:104D5000800601D5E06900E00620B8F1650F8146C4
:104D600006D0B8F1660F18D0B8F1670F70D131E0F6
:104D70000020B9F1110F009001DB112301E009F1CE
:104D800001030AAA01A90CA8FFF7E2FEDDE90C70F5
:104D9000002609F10105834647E001204B460090BB
:104DA0004FF000470AAA01A90CA8FFF7D1FEDDE9E0
:104DB0000DB00C995D46002610B909F101000D18DF
:104DC000B9EB050003D4C0F1FF3609F10105A5EBED
:104DD00009002BE0B9F1010F01DA4FF001090020C1
:104DE000B9F1110F0090484601DD112300E00346A0
:104DF0000AAA01A90CA8FFF7ABFEDDE90C704D462D
:104E000000268346207800070AD4AB4500DA5D46C9
:104E100001A8012D04DD411911F8011C302907D02A
:104E20004F4502DA17F1040F04DA012082460FE041
:104E30006D1EEEE7002F02DCED1B3E4403E0781C04
:104E4000A84200DD7D1CB81B00F1010A4FF00047AD
:104E50002078000703D4AA4501DB4FF0FF3A002178
:104E6000B7F1004F0DF143088DF8431024D0022014
:104E70002B23002F01DA7F422D230A21021EA0F1ED
:104E8000010000DC5FB197FBF1FC97FBF1F201FB45
:104E90001C7C17460CF1300C08F801CDEEE7A8F1A8
:104EA000010003702188090501D5452100E0652135
:104EB000A0F1010800F8011C09980FA9A1EB08074F
:104EC000FF1D00B10120411901EBEA70A1693844CE
:104ED000081A401EA0612078C00602D42046FFF7C1
:104EE00030FC099828B1D4E901219047206A401C80
:104EF00020622078C00622D52046FFF722FC1EE063
:104F0000002E04DBB34502DD01A8805D00E0302007
:104F1000D4E901219047206A401C2062761CAAF146
:104F200001005FEA000A0AD100F088F8C068016851
:104F3000405CD4E901219047206A401C2062281E71
:104F4000A5F10105DCDC07E0D4E9012118F8010B2B
:104F50009047206A401C2062381EA7F10107F3DC4D
:104F60002046FFF704FC032011B041E610B5436969
:104F700013B1AFF3008001E0FFF7D0FC012010BDBA
:104F8000128800F1240182840022C2840122EDE70C
:104F900011684FF0FF32E9E7007B00F080007047B6
:104FA00070B516460C46054600F040F8036893F8C5
:104FB0000101012806D0FF2C0FD8185D68B101202F
:104FC0002C7070BDD3F807013246214603F2071357
:104FD00003442846BDE8704018474FF0FF3070BDCD
:104FE000754600F0EBF8AE4605006946534620F0E2
:104FF0000700854618B020B5FDF7CAFCBDE8204083
:105000004FF000064FF000074FF000084FF0000B84
:1050100021F00701AC46ACE8C009ACE8C009ACE837
:10502000C009ACE8C0098D467047000010B500F01B
:1050300005F8001D10BD00BF010A000000487047C0
:105040001C0E00202DE9F0411F460446032601688E
:10505000072A01F4006004DB08B116A505E016A5D7
:1050600003E008B115A500E015A521F010002060AF
:10507000A069C01EA0610FB1401EA0612046FFF7CD
:1050800060FB4FB1D4E9012138469047206A401CAB
:105090002062C01C206206E0206AFAE7D4E9012100
:1050A00015F8010B9047761EF8D22046FFF75FFBFC
:1050B000BDE8F0814E414E006E616E00494E4600E3
:1050C000696E66002DE9F047814616468AB035487C
:1050D00078440DC88DE80D0032487844801C03AC3C
:1050E0000DC884E80D0041F69B300844372190FB41
:1050F000F1F290FBF1F5A5F1800501FB12041B3CD8
:1051000002D56442012000E00020DFF898A080462C
:105110000027FA44AAF1BE0A0EE0E0070AD03246A0
:10512000684607EB470101230AEB810100F01BFBF6
:105130008DE8070064107F1C002CEED1194F7F44CE
:10514000AE3F19E0E80715D007EB04100DF1180A7F
:1051500090E80E008AE80E00C068F04201D198196C
:1051600008903246012306A903A800F0FCFA03AB1D
:1051700083E807006D10641C002DE3D14FF001039C
:1051800032466946B8F1000F03A802D000F0D6FA03
:1051900001E000F0E8FAC9E90001C9F808200AB006
:1051A000BDE8F0876C12000010B50446AFF3008034
:1051B0002046BDE81040FBF778B800000048704773
:1051C000FC0D00204FF0013C50F8042B51F8043B3B
:1051D0009A4221D1A2EB0C03934313EACC1317D1CB
:1051E00050F8042B51F8043B9A4215D1A2EB0C0362
:1051F000934313EACC130BD150F8042B51F8043B22
:105200009A4209D1A2EB0C03934313EACC13DBD0EF
:105210004FF00000704700BFD01A01BAB1FA81F117
:1052200001F0180122FA01F0CB40C1F12001DBB2FC
:10523000C0B2C01A2CFA01F3D11A914311EAC3117A
:10524000E6D170475FEA400C08BF91F0000F4FEACB
:105250008C234FEAC12243EA51514FEA1C5018BF38
:1052600000F5F0404FEA300018BF41F000415FEA1E
:105270006C5C00F02980BCF1FF3F08BF40F080402B
:105280007047130C06BF12044FF0100C4FF0000CC7
:10529000130E04BF12020CF1080C130F04BF12010D
:1052A0000CF1040C930F04BF92000CF1020CD30F0D
:1052B00004BF52000CF1010C11464FF00002A0F1A6
:1052C0001F00A0EB0C00704711F0004F08BF7047A3
:1052D00031F000413FF4D5AF0B0C06BF09044FF08D
:1052E000100C4FF0000C0B0E04BF09020CF1080C5F
:1052F0000B0F04BF09010CF1040C8B0F04BF8900D4
:105300000CF1020CCB0F04BF49000CF1010CCCF1E5
:105310002003A0EB0C0022FA03F302FA0CF241EA9C
:10532000030100F10100704720F07F4C80EA030088
:1053300023F07F47ACEB070303F57C5300F00040FC
:1053400003F1FF032DE980494FEA154B09B44FEAF9
:10535000144325EA0B4E24EA03480FF2042606EB19
:10536000132749083E785FEA320203FB0667C7F558
:10537000000707FB06F64FEA54374FEAD64606F118
:10538000020607FB066CCCF1005C4FEA1C472CEAD6
:10539000074C07FB06F40CFB06F504EB15464FEA39
:1053A000961634BF00204FF000404FEAD13706FB7D
:1053B00007FC4FEA1C4C0CFB0BF7D21B03FB0CF752
:1053C00061EB07010CFB0EF7B0EB074072EB1742E5
:1053D0000CFB08F734BFA2EB0742B2EB074261EBCC
:1053E00017414FEA0C444FEA910706FB07FC4FEACE
:1053F0001C4C0CFB0BF7B0EBC74072EB573203FBB6
:105400000CF734BFA2EBC742B2EBC74261EB573196
:105410000CFB0EF7B0EBC70072EB57720CFB08F7F2
:1054200034BFA2EBC702B2EBC70261EB5771039F17
:105430004FEA816141EA921104EBCC044FEAD13783
:105440004FEA826206FB07FC42EA90124FEA806054
:105450004FEA1C4C0CFB0BF7D21B03FB0CF761EB68
:1054600007010CFB0EF7B0EB074072EB17420CFB89
:1054700008F734BFA2EB0742B2EB074261EB1741DA
:105480004FEA8C554FEA910704EB9C2406FB07FC7E
:105490004FEA1C4C0CFB0BF7B0EBC74072EB5732DA
:1054A00003FB0CF734BFA2EBC742B2EBC74261EB80
:1054B00057310CFB0EF7B0EBC70072EB57720CFBC9
:1054C00008F734BFA2EBC702B2EBC70261EB57711A
:1054D00015EB4C254FEA816141EA92114FEA826255
:1054E0004FEAD13742EA901206FB07FC44F1000470
:1054F0004FEA80604FEA1C4C0CFB0BF7D21B03FBFE
:105500000CF761EB07010CFB0EF7B0EB074072EBF9
:1055100017420CFB08F734BFA2EB0742B2EB07427D
:1055200061EB174115EB1C154FEA813141EA9241BD
:105530004FEA823242EA90424FEA80304FEA0C76DC
:1055400044F1000448EA03434EEA0B484FF0000ED2
:10555000B2EB080C71EB030724BF624639464EEBF1
:105560000E0E4FF0000B0018524149414BEB0B0B54
:10557000B2EB080C71EB03077BF1000B24BF624612
:1055800039464EEB0E0E4FF0000B001852414941C8
:105590004BEB0B0BB2EB080C71EB03077BF1000B31
:1055A00024BF624639464EEB0E0E51EA020718BF81
:1055B00046F0010616EB0E7655F1000254F100019B
:1055C00003D5BDE88901BDE80088BDE88901BDE8D3
:1055D0000048B619524141EB0101A3F101037047A4
:1055E00080807F7E7D7C7B7A797877767675747320
:1055F000727171706F6E6E6D6C6C6B6A6A696868DF
:10560000676666656464636362616160605F5F5E74
:105610005E5D5D5C5C5B5B5A5A59595858575756EA
:10562000565555555454535352525251515050504F
:105630004F4F4F4E4E4D4D4D4C4C4C4B4B4B4A4AA1
:105640004A494949484848474747474646464545E5
:10565000454444444443434343424242424141411E
:10566000002B9C4630D477002BD01CB54FEA37076F
:1056700003B44FF010004FF01001BAF1000F06D044
:10568000BCF1000FDCBF40F0080040F008014FF013
:1056900000000FBCBDE810400BF1010BBBF1010F86
:1056A00008BF5FEA170722BF12F1010211F10101E1
:1056B0004FF0004143F1000300F0004043EA0000D6
:1056C0007047F9D35708D0E746EA064613F1400F72
:1056D0004FEA16461FDD13F1200FDFBF16430A46BF
:1056E000002120335B42BED0C3F1200746EA0646C4
:1056F00002FA07F74FEA164646EA0706C3F1200703
:1057000022FA03F201FA07F721FA03F14FF000033E
:1057100042EA0702A7E746EA020646EA06464FEAD9
:10572000164646EA0106BCBF46EA0646360C4FF06E
:1057300000034FF000024FF0000194E72DE9804C88
:105740009A46934670B491E8380007C831EA400C95
:1057500048BF34EA430C03D5FFF7E6FDFFF780FFAF
:10576000F0BCBDE8008C2DE9804C9A46934670B49D
:1057700091E8380007C810F0804F08BF13F0804F41
:1057800003D100F005F8FFF76BFFF0BCBDE8008C1B
:1057900020F07F4780EA030023F07F4C07EB0C03E7
:1057A000A3F57C5300F00040A3F1FE0392F0000F3C
:1057B00000F0B38095F0000F00F077802DE90149EB
:1057C0004FEA11404FEA144621EA004800FB06FC6C
:1057D00024EA064708FB06F607FB08F800FB07F774
:1057E00018EB06484CEB164C4FEA124B18EB0748E7
:1057F0004FEA15464CEB174022EA0B4E0BFB06FC1A
:1058000025EA06470EFB06F607FB0EFE0BFB07F725
:105810001EEB064E4CEB164C4FF000061EEB074EEF
:105820004CEB174B18EB0B0840F1000018EB0E0B7C
:1058300058EB000840F100008F1A4FF000013CBF08
:10584000C943661B14BFB5EB040C00213CBFC94320
:10585000F61B4FEA17444EEA8E0E27EA04454FEA3C
:105860001C4704FB07622CEA074C05FB07F70CFBFF
:1058700005F604FB0CFC16EB074642EB174216EB51
:105880000C4642EB1C421BEB060658EB0202414160
:1058900046EA9E0601D5BDE80189B619524141EBA1
:1058A0000101A3F10103BDE801894FEA14454FEA64
:1058B000114724EA054621EA074C05FB07F406FBDD
:1058C00007F70CFB06F105FB0CFC11EB074144EB61
:1058D00017444FEA124711EB0C4144EB1C4422EAF7
:1058E000074C05FB07F206FB07F70CFB06F605FB6A
:1058F0000CFC16EB074642EB174216EB0C4642EB4C
:105900001C456A1854F1000148BF7047B61952414E
:1059100041EB0101A3F10103704795F0000F37D06F
:105920004FEA11424FEA144721EA024624EA074CA3
:1059300002FB07F106FB07F70CFB06F402FB0CFC6D
:1059400014EB074441EB17414FEA154714EB0C44A5
:1059500041EB1C4125EA074C02FB07F506FB07F764
:105960000CFB06F602FB0CFC16EB074645EB174555
:1059700016EB0C4645EB1C42121951F1000148BFD1
:105980007047B619524141EB0101A3F10103704781
:105990004FEA14454FEA114724EA054621EA074C2D
:1059A00005FB07F106FB07F70CFB06F24FF00006BC
:1059B00005FB0CFC12EB074241EB174112EB0C42CA
:1059C00051EB1C4148BF7047921841EB0101A3F114
:1059D00001037047490050EAC12018BF04204A0D56
:1059E00018BF40F0010040F2FF72B2EB515F08BFF8
:1059F00040F00200012808BF0520704730380A280F
:105A000001D20120704700207047000010B5002926
:105A10000AD00878002807D005487844FFF7D2FB61
:105A2000002801D0002010BD0248784410BD0000BD
:105A3000FE090000F609000010B500290AD0087818
:105A4000002807D005487844FFF7BCFB002801D0A8
:105A5000002010BD0248784410BD0000EE0900008F
:105A6000E6090000FFF74CB900000000000000004C
:105A7000002F000000000700070000147F147F14AF
:105A800000242A7F2A120062640813230036495535
:105A9000225000000503000000001C22410000000D
:105AA00041221C000014083E08140008083E0808A3
:105AB000000000A0600000080808080800006060FE
:105AC0000000002010080402003E5149453E00003D
:105AD000427F4000004261514946002141454B311F
